:020000040800F2
:1000000000C0012031160008AD020008B902000846
:10001000C1020008C9020008D10200080000000067
:10002000000000000000000000000000D9020008ED
:10003000E502000800000000F1020008FD020008CF
:100040007D1600087D1600087D1600087D16000844
:100050007D1600087D160008150300087D160008AF
:100060007D1600087D1600087D1600087D16000824
:100070007D1600087D1600087D1600087D16000814
:100080007D1600087D1600087D1600087D16000804
:100090007D1600087D1600087D1600087D160008F4
:1000A0007D1600087D1600087D1600087D160008E4
:1000B0007D1600087D1600087D1600087D160008D4
:1000C0007D1600087D1600087D1600087D160008C4
:1000D0007D1600087D1600087D1600087D160008B4
:1000E0007D1600087D160008210300087D16000813
:1000F0007D1600087D1600087D1600087D16000894
:100100007D1600087D1600087D1600087D16000883
:100110007D1600087D1600087D1600087D16000873
:100120007D1600087D1600087D1600087D16000863
:100130007D1600087D1600087D1600087D16000853
:100140007D1600087D1600087D1600082D030008A6
:100150007D1600087D1600087D1600087D16000833
:100160007D1600087D1600087D1600087D16000823
:100170007D1600087D1600087D1600087D16000813
:080180007D1600087D16000841
:1001880080B582B000AF194B4FF000021A6000F042
:10019800CFF84FF008004FF0010100F0C3FF4FF413
:1001A80082533B604FF001033B714FF00003BB717A
:1001B8004FF00103FB714FF002037B713B460C4883
:1001C800194600F0B5FA0A484FF4825100F0EAFBEC
:1001D8004FF47A6000F00EF805484FF4825100F0B1
:1001E800EFFB4FF47A6000F005F8ECE728000020F8
:1001F800000C024080B485B000AF78604FF0000377
:10020800FB607B68FB600EE04FF47A73BB6003E031
:10021800BB6803F1FF33BB60BB68002BF8D1FB68F8
:1002280003F1FF33FB60FB68002BEDD107F11407E6
:10023800BD4680BC704700BF80B483B000AF786013
:100248007A68064B1A6000BF044B1B68002BFBD171
:1002580007F10C07BD4680BC704700BF280000208E
:1002680080B400AF0D4B1B68002B0BD00C4B1B68E8
:1002780003F101020A4B1A60084B1B6803F1FF32B5
:10028800064B1A60054B1B68002B03D1034B4FF03C
:100298000A021A60BD4680BC704700BF28000020D3
:1002A8002400002080B400AFBD4680BC704700BF6A
:1002B80080B400AFFEE700BF80B400AFFEE700BF28
:1002C80080B400AFFEE700BF80B400AFFEE700BF18
:1002D80080B400AFBD4680BC704700BF80B400AF9B
:1002E800BD4680BC704700BF80B400AFBD4680BC2F
:1002F800704700BF80B582B000AF4FF00003FB71BC
:10030800FFF7AEFF07F10807BD4680BD80B400AF18
:10031800BD4680BC704700BF80B400AFBD4680BCFE
:10032800704700BF80B400AFBD4680BC704700BFB7
:1003380080B500AF124B124A126842F001021A60EF
:100348000F4B4FF000029A600D4A0D4B1B6823F0CB
:10035800847323F480331360094B0A4A5A60084BAC
:10036800074A126822F480221A60054B4FF00002F7
:10037800DA6000F093F8044B4FF000629A6080BD99
:10038800003802401030002400ED00E080B487B04F
:1003980000AF4FF000033B614FF000037B614FF06B
:1003A8000203FB604FF00003BB604FF002037B6069
:1003B800354B9B6803F00C033B613B69042B07D06A
:1003C800082B09D0002B45D1304B314A1A6045E043
:1003D8002E4B304A1A6041E02B4B5B6803F48003D4
:1003E8004FEA9353BB60284B5B6803F03F037B6085
:1003F800BB68002B0ED0274A7B68B2FBF3F2224B76
:10040800596847F6C0730B404FEA931303FB02F396
:100418007B610DE01E4A7B68B2FBF3F21A4B596808
:1004280047F6C0730B404FEA931303FB02F37B615B
:10043800154B5B6803F440334FEA134303F10103A0
:100448004FEA4303FB607A69FB68B2FBF3F20F4B98
:100458001A6003E00D4B0E4A1A6000BF0A4B9B68F6
:1004680003F0F0034FEA13130B4AD35CDBB23B6192
:10047800064B1A683B6922FA03F2044B1A6007F12B
:100488001C07BD4680BC70470038024000000020B1
:100498000024F40000127A000400002080B483B025
:1004A80000AF4FF000037B604FF000033B60424B0E
:1004B800414A126842F480321A603F4B1B6803F4C9
:1004C80000333B607B6803F101037B603B68002BD2
:1004D80003D17B68B3F5A06FEFD1374B1B6803F4EA
:1004E8000033002B03D04FF001033B6002E04FF0D4
:1004F80000033B603B68012B42D12F4B2E4A126C04
:1005080042F080521A642D4B2C4A126842F4804201
:100518001A60294B284A92689A60274B264A9268A3
:1005280042F400429A60244B234A926842F4A05253
:100538009A60214B224A5A601F4B1F4A126842F0A8
:1005480080721A6000BF1C4B1B6803F00073002BFD
:10055800F9D01C4B40F205621A60174B164A926894
:1005680022F003029A60144B134A926842F0020286
:100578009A6000BF104B9B6803F00C03082BF9D15D
:100588000D4B0D4A926822F400029A600A4B0E4AFB
:10059800C3F88420084B084A126842F080621A6047
:1005A80000BF054B1B6803F00063002BF9D007F16F
:1005B8000C07BD4680BC7047003802400070004000
:1005C80019544007003C02400030005080B582B00A
:1005D80000AF78607A684D4B9A420CD14FF0010019
:1005E8004FF0010100F03EFE4FF001004FF0000116
:1005F80000F038FE86E07A68454B9A420CD14FF0FD
:1006080002004FF0010100F02DFE4FF002004FF004
:10061800000100F027FE75E07A683E4B9A420CD143
:100628004FF004004FF0010100F01CFE4FF00400F1
:100638004FF0000100F016FE64E07A68364B9A42EB
:100648000CD14FF008004FF0010100F00BFE4FF005
:1006580008004FF0000100F005FE53E07A682F4BC8
:100668009A420CD14FF010004FF0010100F0FAFD52
:100678004FF010004FF0000100F0F4FD42E07A68FE
:10068800274B9A420CD14FF020004FF0010100F0A7
:10069800E9FD4FF020004FF0000100F0E3FD31E0EC
:1006A8007A68204B9A420CD14FF040004FF001017C
:1006B80000F0D8FD4FF040004FF0000100F0D2FDEF
:1006C80020E07A68184B9A420CD14FF080004FF026
:1006D800010100F0C7FD4FF080004FF0000100F06D
:1006E800C1FD0FE07A68114B9A420BD14FF480702C
:1006F8004FF0010100F0B6FD4FF480704FF000019B
:1007080000F0B0FD07F10807BD4680BD00000240BB
:100718000004024000080240000C024000100240A1
:100728000014024000180240001C02400020024051
:1007380080B487B000AF786039604FF000037B6108
:100748004FF000033B614FF00003FB604FF00003E4
:100758007B6186E07B694FF0010202FA03F33B619B
:100768003B681A683B691340FB60FA683B699A4228
:1007780073D17B681A687B694FEA43034FF0030122
:1007880001FA03F36FEA03031A407B681A607B6877
:100798001A683B681B7919467B694FEA430301FADB
:1007A80003F31A437B681A603B681B79012B03D05B
:1007B8003B681B79022B34D17B689A687B694FEAC6
:1007C80043034FF0030101FA03F36FEA03031A40EE
:1007D8007B689A607B689A683B685B7919467B6995
:1007E8004FEA430301FA03F31A437B689A607B6874
:1007F8005A687B699BB24FF0010101FA03F36FEA73
:1008080003031A407B685A607B685A683B689B7987
:1008180019467B699BB201FA03F39BB21A437B68C2
:100828005A607B68DA687B699BB24FEA43034FF0F2
:10083800030101FA03F36FEA03031A407B68DA60E5
:100848007B68DA683B68DB7919467B694FEA4303C2
:1008580001FA03F31A437B68DA607B6903F1010349
:100868007B617B690F2B7FF675AF07F11C07BD46CF
:1008780080BC704780B483B000AF78607B684FF667
:10088800FF721A607B684FF000021A717B684FF0A4
:1008980000025A717B684FF000029A717B684FF032
:1008A8000002DA7107F10C07BD4680BC704700BF33
:1008B80080B485B000AF78600B467B804FF48033FE
:1008C800FB607A88FB681343FB60FA687B68DA612F
:1008D8007A887B68DA61FA687B68DA617B68DB6949
:1008E800FB607B68DB69FB6007F11407BD4680BCD1
:1008F800704700BF80B485B000AF78600B467B803E
:100908004FF00003FB737B681A697B881340002B48
:1009180003D04FF00103FB7302E04FF00003FB73B9
:10092800FB7B184607F11407BD4680BC704700BF23
:1009380080B483B000AF78607B681B699BB21846AF
:1009480007F10C07BD4680BC704700BF80B485B076
:1009580000AF78600B467B804FF00003FB737B6829
:100968005A697B881340002B03D04FF00103FB73B7
:1009780002E04FF00003FB73FB7B184607F11407F6
:10098800BD4680BC704700BF80B483B000AF7860BC
:100998007B685B699BB2184607F10C07BD4680BCB3
:1009A800704700BF80B483B000AF78600B467B808F
:1009B8007B687A881A8307F10C07BD4680BC7047AC
:1009C80080B483B000AF78600B467B807B687A8800
:1009D8005A8307F10C07BD4680BC704780B483B0CA
:1009E80000AF786013460A467A807B707B78002BCC
:1009F80003D07B687A881A8302E07B687A885A83F6
:100A080007F10C07BD4680BC704700BF80B483B0B7
:100A180000AF78600B467B807A887B685A6107F163
:100A28000C07BD4680BC704780B483B000AF7860C7
:100A38000B467B807B685A697B885A407B685A6181
:100A480007F10C07BD4680BC704700BF80B485B075
:100A580000AF786013460A467A807B704FF0000337
:100A6800FB604FF00003BB607A787B8803F00703D4
:100A78004FEA830302FA03F3FB607B884FEAD30350
:100A88009BB21A467B884FEAD3039BB219467B6810
:100A980001F1080153F821107B8803F007034FEA9E
:100AA80083034FF00F0000FA03F36FEA03031940C2
:100AB8007B6802F1080243F822107B884FEAD303CF
:100AC8009BB21A467B6802F1080253F82220FB68A1
:100AD8001343BB607B884FEAD3039BB21A467B68FB
:100AE80002F10802B96843F8221007F11407BD465D
:100AF80080BC704780B400AF104B104A126842F0B7
:100B080001021A600D4B4FF000029A600B4A0B4B22
:100B18001B6823F0847323F480331360074B084A5F
:100B28005A60064B054A126822F480221A60034B69
:100B38004FF00002DA60BD4680BC704700380240C2
:100B48001030002480B483B000AF0346FB71064B1D
:100B58004FF000021A70044BFA791A7007F10C076B
:100B6800BD4680BC704700BF0238024080B582B0E5
:100B780000AF4FF000033B604FF00003FB714FF0F4
:100B88000003BB714FF0310000F0D2FC0346BB718B
:100B98003B6803F101033B603B68B3F5A06F02D0EB
:100BA800BB79002BEED04FF0310000F0C1FC0346BA
:100BB800002B03D04FF00103FB7102E04FF000035C
:100BC800FB71FB79184607F10807BD4680BD00BFD9
:100BD80080B485B000AF0346FB714FF00003FB60A3
:100BE8000A4B1B68FB60FB6823F0F803FB60FB798A
:100BF8004FEAC303FA681343FB60044BFA681A60B0
:100C080007F11407BD4680BC704700BF003802409A
:100C180080B483B000AF0346FB71044BFA791A60C5
:100C280007F10C07BD4680BC704700BF0000474273
:100C380080B483B000AF0346FB710F4B4FF0000246
:100C48001A700D4B4FF000021A70FB79012B02D07D
:100C5800042B05D009E0084B4FF001021A7005E09B
:100C6800054B4FF005021A7000E000BF07F10C07B2
:100C7800BD4680BC704700BF7038024080B483B066
:100C880000AF0346FB71044BFA791A6007F10C07B1
:100C9800BD4680BC704700BF800E474280B485B017
:100CA80000AFF860B9607A603B600D4B7A684FEA34
:100CB8008211BA6811433A684FEA520202F1FF32D0
:100CC8004FEA02421143FA681143BA694FEA0262D5
:100CD8000A435A6007F11407BD4680BC704700BF3D
:100CE8000038024080B483B000AF0346FB71044B68
:100CF800FA791A6007F10C07BD4680BC704700BF3F
:100D08006000474280B483B000AF78603960074B19
:100D18007A684FEA82113A684FEA02720A43C3F8C6
:100D2800842007F10C07BD4680BC7047003802409C
:100D380080B483B000AF0346FB71044BFA791A60A4
:100D480007F10C07BD4680BC704700BF68004742EA
:100D580080B483B000AF0346FB71044BFA791A6084
:100D680007F10C07BD4680BC704700BF4C004742E6
:100D780080B485B000AF786039604FF00003FB6045
:100D88000A4B9B68FB60FB6823F0EC63FB607A68A6
:100D98003B681343FA681343FB60044BFA689A6094
:100DA80007F11407BD4680BC704700BF00380240F9
:100DB80080B485B000AF786039604FF00003FB6005
:100DC8000A4B9B68FB60FB6823F07843FB607A68FA
:100DD8003B681343FA681343FB60044BFA689A6054
:100DE80007F11407BD4680BC704700BF00380240B9
:100DF80080B485B000AF78604FF00003FB60094B0A
:100E08009B68FB60FB6823F00303FB60FA687B6860
:100E18001343FB60034BFA689A6007F11407BD4659
:100E280080BC70470038024080B400AF044B9B6818
:100E3800DBB203F00C03DBB21846BD4680BC70473A
:100E48000038024080B485B000AF78604FF00003EE
:100E5800FB60094B9B68FB60FB6823F0F003FB60B9
:100E6800FA687B681343FB60034BFA689A6007F1E2
:100E78001407BD4680BC70470038024080B485B076
:100E880000AF78604FF00003FB60094B9B68FB6084
:100E9800FB6823F4E053FB60FA687B681343FB604C
:100EA800034BFA689A6007F11407BD4680BC704787
:100EB8000038024080B485B000AF78604FF000037E
:100EC800FB600A4B9B68FB60FB6823F46043FB6094
:100ED8007B684FEAC303FA681343FB60034BFA6865
:100EE8009A6007F11407BD4680BC7047003802407D
:100EF80080B489B000AF78604FF00003BB614FF059
:100F080000037B614FF00003FB614FF002033B617C
:100F18004FF00003FB604FF00203BB604E4B9B6831
:100F280003F00C03BB61BB69042B07D0082B09D065
:100F3800002B45D17B68494A1A6045E07B68484ADE
:100F48001A6041E0444B5B6803F480034FEA935313
:100F5800FB60414B5B6803F03F03BB60FB68002B01
:100F68000ED03F4ABB68B2FBF3F23B4B596847F6D9
:100F7800C0730B404FEA931303FB02F3FB610DE0D0
:100F8800364ABB68B2FBF3F2334B596847F6C07375
:100F98000B404FEA931303FB02F3FB612E4B5B6894
:100FA80003F440334FEA134303F101034FEA4303C9
:100FB8003B61FA693B69B2FBF3F27B681A6003E0B4
:100FC8007B68264A1A6000BF234B9B6803F0F00336
:100FD800BB61BB694FEA1313BB61224ABB69D318D3
:100FE8001B78DBB27B617B681A687B6922FA03F2A3
:100FF8007B685A60184B9B6803F4E053BB61BB697C
:101008004FEA9323BB61174ABB69D3181B78DBB23D
:101018007B617B685A687B6922FA03F27B689A6075
:101028000D4B9B6803F46043BB61BB694FEA5333C4
:10103800BB610C4ABB69D3181B78DBB27B617B6848
:101048005A687B6922FA03F27B68DA6007F12407A1
:10105800BD4680BC704700BF003802400024F40041
:1010680000127A001400002080B485B000AF7860C8
:101078004FF00003FB607B6803F44073B3F5407FD7
:1010880011D1104B9B68FB60FB6823F4F813FB60DD
:101098007B6823F0704323F44073FA681343FB60C2
:1010A800084BFA689A60074A064B196F7B684FEA43
:1010B80003534FEA13530B43136707F11407BD4655
:1010C80080BC70470038024080B483B000AF03464C
:1010D800FB71044BFA791A6007F10C07BD4680BC16
:1010E800704700BF3C0E474280B483B000AF034650
:1010F800FB71044BFA791A6007F10C07BD4680BCF6
:10110800704700BF400E474280B483B000AF78609C
:10111800034B7A681A6007F10C07BD4680BC70471C
:101128005C01474280B483B000AF78600B46FB7027
:10113800FB78002B06D00A4B094A116B7A680A43E0
:101148001A6307E0064B064A116B7A686FEA0202D7
:101158000A401A6307F10C07BD4680BC704700BF00
:101168000038024080B483B000AF78600B46FB7053
:10117800FB78002B06D00A4B094A516B7A680A4360
:101188005A6307E0064B064A516B7A686FEA020217
:101198000A405A6307F10C07BD4680BC704700BF80
:1011A8000038024080B483B000AF78600B46FB7013
:1011B800FB78002B06D00A4B094A916B7A680A43E0
:1011C8009A6307E0064B064A916B7A686FEA020257
:1011D8000A409A6307F10C07BD4680BC704700BF00
:1011E8000038024080B483B000AF78600B46FB70D3
:1011F800FB78002B06D00A4B094A116C7A680A431F
:101208001A6407E0064B064A116C7A686FEA020214
:101218000A401A6407F10C07BD4680BC704700BF3E
:101228000038024080B483B000AF78600B46FB7092
:10123800FB78002B06D00A4B094A516C7A680A439E
:101248005A6407E0064B064A516C7A686FEA020254
:101258000A405A6407F10C07BD4680BC704700BFBE
:101268000038024080B483B000AF78600B46FB7052
:10127800FB78002B06D00A4B094A11697A680A43A1
:101288001A6107E0064B064A11697A686FEA02029A
:101298000A401A6107F10C07BD4680BC704700BFC1
:1012A8000038024080B483B000AF78600B46FB7012
:1012B800FB78002B06D00A4B094A51697A680A4321
:1012C8005A6107E0064B064A51697A686FEA0202DA
:1012D8000A405A6107F10C07BD4680BC704700BF41
:1012E8000038024080B483B000AF78600B46FB70D2
:1012F800FB78002B06D00A4B094A91697A680A43A1
:101308009A6107E0064B064A91697A686FEA020219
:101318000A409A6107F10C07BD4680BC704700BFC0
:101328000038024080B483B000AF78600B46FB7091
:10133800FB78002B06D00A4B094A116A7A680A43DF
:101348001A6207E0064B064A116A7A686FEA0202D7
:101358000A401A6207F10C07BD4680BC704700BFFF
:101368000038024080B483B000AF78600B46FB7051
:10137800FB78002B06D00A4B094A516A7A680A435F
:101388005A6207E0064B064A516A7A686FEA020217
:101398000A405A6207F10C07BD4680BC704700BF7F
:1013A8000038024080B483B000AF78600B46FB7011
:1013B800FB78002B06D00A4B094A116D7A680A435C
:1013C8001A6507E0064B064A116D7A686FEA020251
:1013D8000A401A6507F10C07BD4680BC704700BF7C
:1013E8000038024080B483B000AF78600B46FB70D1
:1013F800FB78002B06D00A4B094A516D7A680A43DC
:101408005A6507E0064B064A516D7A686FEA020290
:101418000A405A6507F10C07BD4680BC704700BFFB
:101428000038024080B483B000AF78600B46FB7090
:10143800FB78002B06D00A4B094A916D7A680A435B
:101448009A6507E0064B064A916D7A686FEA0202D0
:101458000A409A6507F10C07BD4680BC704700BF7B
:101468000038024080B483B000AF78600B46FB7050
:10147800FB78002B06D00A4B094A116E7A680A439A
:101488001A6607E0064B064A116E7A686FEA02028E
:101498000A401A6607F10C07BD4680BC704700BFBA
:1014A8000038024080B483B000AF78600B46FB7010
:1014B800FB78002B06D00A4B094A516E7A680A431A
:1014C8005A6607E0064B064A516E7A686FEA0202CE
:1014D8000A405A6607F10C07BD4680BC704700BF3A
:1014E8000038024080B483B000AF02460B46FA7160
:1014F800BB71BB79002B08D00C4B0C4A1278D1B2C7
:10150800FA790A43D2B21A700AE0084B074A1278ED
:10151800D1B2FA796FEA0202D2B20A40D2B21A7094
:1015280007F10C07BD4680BC704700BF0D3802406C
:1015380080B487B000AF0346FB714FF00003FB6037
:101548004FF000037B614FF00003FB74FB794FEA17
:101558005313DBB2FB60FB68012B03D1134B1B68F1
:101568007B6109E0FB68022B03D1104B1B6F7B6189
:1015780002E00E4B5B6F7B61FB7903F01F03FB609E
:10158800FB687A6922FA03F303F00103002B03D006
:101598004FF00103FB7402E04FF00003FB74FB7C87
:1015A800184607F11C07BD4680BC7047003802404A
:1015B80080B400AF044B044A526F42F080725A67FD
:1015C800BD4680BC704700BF0038024080B485B07B
:1015D80000AF0346FB714FF00003FB73094BDA6859
:1015E800FB791340002B03D04FF00103FB7302E09B
:1015F8004FF00003FB73FB7B184607F11407BD4649
:1016080080BC70470038024080B483B000AF034606
:10161800FB71044BFA791A7007F10C07BD4680BCC0
:10162800704700BF0E380240002100F004B80C4B90
:101638005B58435004310B480B4B42189A42FFF455
:10164800F6AF0A4A00F003B8002342F8043B084BFF
:101658009A42FFF4F9AFFEF76BFEFEF791FD704773
:10166800801600080000002024000020240000202C
:081678003C000020FFF7FEBF5B
:10168000007A030A000000000000000001020304C9
:101690000607080900000000010203040102030418
:0416A0000607080928
:0400000508001631A8
:00000001FF
