:020000040800F2
:1000000000C00120313400086502000869020008C0
:100010006D0200087102000875020008000000006F
:10002000000000000000000000000000790200084D
:100030007D0200080000000081020008850200081F
:100040007D3400087D3400087D3400087D340008CC
:100050007D3400087D340008890200087D340008E2
:100060007D3400087D3400087D3400087D340008AC
:100070007D3400087D3400087D3400087D3400089C
:100080007D3400087D3400087D3400087D3400088C
:100090007D3400087D3400087D3400087D3400087C
:1000A0007D3400087D3400087D3400087D3400086C
:1000B0007D3400087D3400087D3400087D3400085C
:1000C0007D3400087D3400087D3400087D3400084C
:1000D0007D3400087D3400087D3400087D3400083C
:1000E0007D3400087D3400088D0200087D3400084E
:1000F0007D3400087D3400087D3400087D3400081C
:100100007D3400087D3400087D3400087D3400080B
:100110007D3400087D3400087D3400087D340008FB
:100120007D3400087D3400087D3400087D340008EB
:100130007D3400087D3400087D3400087D340008DB
:100140007D3400087D3400087D34000891020008E9
:100150007D3400087D3400087D3400087D340008BB
:100160007D3400087D3400087D3400087D340008AB
:100170007D3400087D3400087D3400087D3400089B
:080180007D3400087D34000805
:1001880082B058B10A220192019B2BB1019B013B1D
:100198000193019B002BF9D10138F4D102B07047CB
:1001A800034A116813685B1A8342FBD3704700BF88
:1001B80058CC002038B5144C236833B1134B1A6857
:1001C80001321A602368013B2360236803B138BDFC
:1001D8000F4B0E4D1B882A790E489BB203FA02F387
:1001E8001B044FF482510CD402F03CFE2B79074AD1
:1001F8000133DBB2102B08BF002313710A232360DD
:1002080038BD02F02DFEF1E760CC002058CC00206C
:1002180000000020000C02400D4B0E481B8810B552
:100228000D4C22799BB203FA02F31A044FF482515F
:100238000AD502F015FE2379074A0133DBB2102BE9
:1002480008BF0023137110BD02F00CFEF3E700BFD6
:1002580000000020000C024058CC0020704700BF6E
:10026800FEE700BFFEE700BFFEE700BFFEE700BFF6
:10027800704700BF704700BF704700BFFFF79ABFC5
:10028800704700BF704700BF704700BF3F4B1968F9
:10029800002241F0010119609A60196821F0847107
:1002A80021F4803119603A495960196882B021F403
:1002B80080211960DA60009201921A6842F4803253
:1002C8001A601A4603E0009BB3F5A06F09D01368C3
:1002D80003F400330193009B01330093019B002B2F
:1002E800F1D02A4B1B6813F4003319D00123019372
:1002F800019B012B18D0254A936823F400039360CF
:10030800244BC2F88430136843F080631360136889
:100318001B01FCD5204B4FF000629A6002B0704779
:100328000193019B012BE6D1184B1C4A196C41F033
:1003380080511964116841F4804111609A689A608B
:100348009A6842F400429A609A6842F4A0529A600D
:10035800134A5A601A6842F080721A6019460B688C
:100368000A4A9801FBD50F4B40F205611960936862
:1003780023F003039360936843F002039360936848
:1003880003F00C03082BFAD1B5E700BF0038024090
:10039800103000240030005000ED00E000700040F4
:1003A80019544007003C0240164B9A6802F00C02B0
:1003B800042A0CD0082A0CD0134A1249134B896816
:1003C800C1F30311595C22FA01F21A617047104A0D
:1003D800F3E7586859685B6842024CBF0C4A0A4AFE
:1003E80001F03F01C3F38813B2FBF1F202FB03F201
:1003F800044B5B68C3F3014301335B00B2FBF3F2C8
:10040800DBE700BF003802400024F40034CC0020B1
:1004180000127A0010B5022082B00E4C012102F0C1
:100428008FFE01234FF438426946204600928DF82A
:10043800043000228DF8073003238DF806208DF84C
:10044800053002F081FC20464FF4805102F00AFD8D
:1004580002B010BD0004024041EA002170B50D460B
:10046800434C01F48076ADB2F6016D0046F420519C
:100478002046ADB202F0FEFC46F4006105F4807639
:10048800F60120466D0002F0F5FCADB246F42051AD
:10049800204602F0EFFC46F4006105F48076F60190
:1004A80020466D0002F0E6FCADB246F4205120462D
:1004B80002F0E0FC46F4006105F48076F60120467F
:1004C8006D0002F0D7FCADB246F42051204602F090
:1004D800D1FC46F4006105F48076F60120466D00F3
:1004E80002F0C8FCADB246F42051204602F0C2FC2E
:1004F80046F4006105F48076F60120466D0002F0AE
:10050800B9FCADB246F42051204602F0B3FC46F4E3
:10051800006105F48076F60120466D0002F0AAFC21
:10052800ADB246F42051204602F0A4FC46F4006126
:1005380005F480762046F60102F09CFC2D0246F474
:100548002051204602F096FC05F40045204646F46A
:10055800006102F08FFC45F42051204602F08AFC2D
:10056800204645F40061BDE8704002F083BC00BF3E
:100578000004024070B53C4C05464FF42841204623
:1005880005F0800602F076FC360220464FF408415A
:1005980002F070FC46F42051204602F06BFC46F451
:1005A800006105F040067602204602F063FC46F43E
:1005B8002051204602F05EFC46F4006105F020065A
:1005C800B602204602F056FC46F42051204602F0BE
:1005D80051FC46F4006105F01006F602204602F0D0
:1005E80049FC46F42051204602F044FC46F40061E0
:1005F80005F008063603204602F03CFC46F420517C
:10060800204602F037FC46F4006105F00406760344
:10061800204602F02FFC46F42051204602F02AFC26
:1006280046F4006105F002062046B60302F022FCFB
:1006380046F42051204602F01DFCED03204646F406
:10064800006102F017FC45F42051204601F42841CE
:1006580002F010FC05F40041204641F40061BDE8B9
:10066800704002F007BC00BF0004024010B5022031
:1006780082B0D44C012102F063FD01234FF43842CB
:100688006946204600928DF8043000228DF8073024
:1006980003238DF806208DF8053002F055FB20461F
:1006A8004FF4805102F0DEFB20464FF4006102F067
:1006B800D9FB0520FFF774FD20464FF4006102F0D6
:1006C800CFFB0520FFF76CFD20464FF4205102F0C8
:1006D800D1FB20464FF4006102F0CCFB20464FF4DA
:1006E800205102F0C7FB20464FF4006102F0C2FB24
:1006F80020464FF4205102F0BDFB20464FF4006124
:1007080002F0B8FB20464FF4205102F0B3FB20461C
:100718004FF4006102F0AEFB20464FF4284102F08E
:10072800A9FB20464FF4084102F0A4FB20464FF4F1
:10073800205102F09FFB20464FF4006102F09AFB23
:1007480020464FF4205102F095FB20464FF40061FB
:1007580002F090FB20464FF4205102F08BFB20461C
:100768004FF4006102F086FB20464FF4284102F066
:1007780081FB20464FF4084102F07CFB20464FF4F1
:10078800205102F077FB20464FF4006102F072FB23
:1007980020464FF4205102F06DFB20464FF40061D3
:1007A80002F068FB20464FF4205102F063FB20461C
:1007B8004FF4006102F05EFB20464FF4284102F03E
:1007C80059FB20464FF4084102F054FB20464FF4F1
:1007D800205102F04FFB20464FF4006102F04AFB23
:1007E80020464FF4205102F045FB20464FF40061AB
:1007F80002F040FB20464FF4205102F03BFB20461C
:100808004FF4006102F036FB20464FF4205102F00D
:1008180031FB20464FF4006102F02CFB20464FF4D8
:10082800205102F027FB20464FF4006102F022FB22
:1008380020464FF4205102F01DFB20464FF4006182
:1008480002F018FB20464FF4205102F013FB20461B
:100858004FF4006102F00EFB20464FF4205102F0E5
:1008680009FB20464FF4006102F004FB20464FF4D8
:10087800284102F0FFFA20464FF4084102F0FAFA44
:1008880020464FF4284102F0F5FA20464FF408417B
:1008980002F0F0FA20464FF4284102F0EBFA204625
:1008A8004FF4084102F0E6FA20464FF4205102F0D6
:1008B800E1FA20464FF4006102F0DCFA20464FF4DA
:1008C800284102F0D7FA20464FF4084102F0D2FA44
:1008D80020464FF4205102F0CDFA20464FF4006133
:1008E80002F0C8FA20464FF4284102F0C3FA204625
:1008F8004FF4084102F0BEFA20464FF4205102F0AE
:10090800B9FA20464FF4006102F0B4FA20464FF4D9
:10091800205102F0AFFA20464FF4006102F0AAFA23
:1009280020464FF4205102F0A5FA20464FF400610A
:1009380002F0A0FA20464FF4205102F09BFA20461C
:100948004FF4006102F096FA20464FF4205102F06D
:1009580091FA20464FF4006102F08CFA20464FF4D9
:10096800205102F087FA20464FF4006102F082FA23
:1009780020464FF4284102F07DFA20464FF4084102
:1009880002F078FA20464FF4284102F073FA204624
:100998004FF4084102F06EFA20464FF4205102F05D
:1009A80069FA20464FF4006102F064FA20464FF4D9
:1009B800205102F05FFA20464FF4006102F05AFA23
:1009C800204601E0000402404FF4205102F052FAA0
:1009D80020464FF4006102F04DFA20464FF42841BA
:1009E80002F048FA20464FF4084102F043FA204644
:1009F8004FF4284102F03EFA20464FF4084102F035
:100A080039FA20464FF4205102F034FA20464FF4C8
:100A1800006102F02FFA20464FF4284102F02AFA2A
:100A280020464FF4084102F025FA20464FF42841A9
:100A380002F020FA20464FF4084102F01BFA204643
:100A48004FF4205102F016FA20464FF4006102F0EC
:100A580011FA20464FF4284102F00CFA20464FF4D0
:100A6800084102F007FA20464FF4284102F002FA42
:100A780020464FF4084102F0FDF920464FF4284182
:100A880002F0F8F920464FF4084102F0F3F9204645
:100A98004FF4205102F0EEF920464FF4006102F0C5
:100AA800E9F920464FF4205102F0E4F920464FF4CA
:100AB800006102F0DFF920464FF4284102F0DAF92C
:100AC80020464FF4084102F0D5F920464FF4205152
:100AD80002F0D0F920464FF4006102F0CBF920462D
:100AE8004FF4205102F0C6F920464FF4006102F09D
:100AF800C1F920464FF4205102F0BCF920464FF4CA
:100B0800006102F0B7F920464FF4205102F0B2F923
:100B180020464FF4006102F0ADF920464FF4205111
:100B280002F0A8F920464FF4006102F0A3F920462C
:100B38004FF4205102F09EF920464FF4006102F074
:100B480099F920464FF4284102F094F920464FF4D1
:100B5800084102F08FF920464FF4205102F08AF93B
:100B680020464FF4006102F085F920464FF42051E9
:100B780002F080F920464FF4006102F07BF920462C
:100B88004FF4284102F076F920464FF4084102F06C
:100B980071F920464FF4205102F06CF920464FF4C9
:100BA800006102F067F920464FF4284102F062F92B
:100BB80020464FF4084102F05DF920464FF42841E1
:100BC80002F058F920464FF4084102F053F9204644
:100BD8004FF4205102F04EF920464FF4006102F024
:100BE80049F920464FF4205102F044F920464FF4C9
:100BF800006102F03FF920464FF4284102F03AF92B
:100C080020464FF4084102F035F920464FF42841B8
:100C180002F030F920464FF4084102F02BF9204643
:100C28004FF4205102F026F920464FF4006102F0FB
:100C380021F920464FF4205102F01CF920464FF4C8
:100C4800006102F017F920464FF4205102F012F922
:100C580020464FF4006102F00DF920464FF4205170
:100C680002F008F920464FF4006102F003F902206F
:100C7800FFF796FA20464FF4205102F0FBF8204681
:100C88004FF4006102F0F6F820464FF4205102F0CC
:100C9800F1F820464FF4006102F0ECF820464FF4DA
:100CA800205102F0E7F820464FF4006102F0E2F824
:100CB80020464FF4284102F0DDF820464FF4084161
:100CC80002F0D8F820464FF4205102F0D3F820461D
:100CD8004FF4006102F0CEF820464FF4284102F0AC
:100CE800C9F820464FF4084102F0C4F820464FF4F2
:100CF800205102F0BFF820464FF4006102F0BAF824
:100D080020464FF4205102F0B5F820464FF4006118
:100D180002F0B0F820464FF4284102F0ABF8204624
:100D28004FF4084102F0A6F802B010BD2DE9F04FCB
:100D3800C24C8BB00546099120464FF4205102F071
:100D480099F820464FF4006102F094F820464FF4D9
:100D5800205102F08FF820464FF4006102F08AF823
:100D680020464FF4205102F085F820464FF40061E8
:100D780002F080F820464FF4284102F07BF8204624
:100D88004FF4084102F076F820464FF4205102F063
:100D980071F820464FF4006102F06CF820464FF4D9
:100DA800284102F067F820464FF4084102F062F843
:100DB80020464FF4205102F05DF820464FF40061C0
:100DC80002F058F820464FF4284102F053F8204624
:100DD8004FF4084102F04EF845F4807520464FF470
:100DE800284102F047F86D0020464FF4084102F010
:100DF80041F805F4807B20464FF4284102F03AF888
:100E08006D0020464FF408414FEACB1B02F032F840
:100E180005F480794BF420539BB24FEAC9194BF47F
:100E2800006B194620461FFA8BFB49F4205A02939F
:100E38001FFA8AFA02F01EF86D002046594649F456
:100E4800006902F017F81FFA89F92046514605F49F
:100E5800807602F00FF8F6012046494602F00AF8BB
:100E680046F4205292B246F4006611462046B6B2C5
:100E78006D00039201F0FEFF0496314605F480767A
:100E88002046F60101F0F6FF46F4205292B21146D0
:100E9800204646F400660592B6B201F0EBFF6D00FD
:100EA8000696314605F480762046F6016D0001F07D
:100EB800E1FF05F4807746F4205292B2FF0146F430
:100EC800006611462046B6B247F4205807921FFA2A
:100ED80088F801F0CFFF6D002046314647F40067DF
:100EE8000896BFB201F0C6FF05F480762046414659
:100EF80001F0C0FFF6012046394601F0BBFF46F479
:100F0800205292B246F4006611462046B6B22D022F
:100F1800019205F4004501F0ADFF2046314601F08D
:100F2800A9FF45F4205C1FFA8CFC45F40065614676
:100F38002046ADB2CDF800C001F09CFF29462046FE
:100F480001F098FF20464FF4284101F093FF204616
:100F58004FF4084101F08EFF029B2046194601F02C
:100F680089FF2046594601F085FF2046514601F089
:100F780081FF2046494601F07DFF2046039901F094
:100F880079FF2046049901F075FF2046059901F084
:100F980071FF2046069901F06DFF2046079901F080
:100FA80069FF2046089901F065FF2046414601F097
:100FB80061FF2046394601F05DFF019A204611463F
:100FC80001F058FF2046314601F054FFDDF800C01B
:100FD8002046614601F04EFF2046294601F04AFFAF
:100FE80020464FF4205101F045FF20464FF40061A0
:100FF80001F040FF20464FF4205101F03BFF20460E
:101008004FF4006101F036FF20464FF4205101F003
:1010180031FF20464FF4006101F02CFF20464FF4C9
:10102800284101F027FF20464FF4084101F022FF34
:1010380020464FF4205101F01DFF01E0000402405A
:1010480020464FF4006101F015FF20464FF4284177
:1010580001F010FF20464FF4084101F00BFF204635
:101068004FF4205101F006FF20464FF4006101F0D3
:1010780001FF20464FF4284101F0FCFE20464FF4C2
:10108800084101F0F7FE20464FF4205101F0F2FE2E
:1010980020464FF4006101F0EDFE099B43F4807592
:1010A8006D0020464FF4284105F4807B01F0E2FEF4
:1010B8006D0020464FF408414FEACB1B01F0DAFEE1
:1010C80005F480794BF420539BB26D004FEAC9199F
:1010D8004BF4006B194620461FFA8BFB49F4205A43
:1010E80005F4807602931FFA8AFA01F0C3FEF6012E
:1010F8002046594649F4006901F0BCFE1FFA89F9F7
:101108002046514646F4205801F0B4FE1FFA88F8EC
:101118002046494646F4006601F0ACFEB6B22046C9
:1011280041466D0001F0A6FE0396314605F480762F
:101138002046F60101F09EFE46F4205292B2114676
:10114800204646F400660492B6B201F093FE6D00A4
:101158000596314605F480762046F60101F08AFEB0
:1011680046F4205292B26D0046F4006611462046BD
:10117800B6B205F480770692FF0101F07BFE2046A7
:101188003146079601F076FE47F4205292B26D0080
:1011980047F4006711462046BFB205F480760892EE
:1011A800F60101F067FE2046394601F063FE46F479
:1011B800205292B246F4006611462046B6B22D027D
:1011C800019205F4004501F055FE2046314601F034
:1011D80051FE45F4205C1FFA8CFC45F4006561461D
:1011E8002046ADB2CDF800C001F044FE29462046A5
:1011F80001F040FE20464FF4284101F03BFE204616
:101208004FF4084101F036FE029B2046194601F0D2
:1012180031FE2046594601F02DFE2046514601F088
:1012280029FE2046494601F025FE2046414601F0A8
:1012380021FE2046039901F01DFE2046049901F085
:1012480019FE2046059901F015FE2046069901F081
:1012580011FE2046079901F00DFE2046089901F07D
:1012680009FE2046394601F005FE019A204611463E
:1012780001F000FE2046314601F0FCFDDDF800C01B
:101288002046614601F0F6FD204629460BB0BDE830
:10129800F04F01F0EFBD00BF2DE9F04FC24C8DB00B
:1012A80005460B9120464FF420510A9201F0E2FDC9
:1012B80020464FF4006101F0DDFD20464FF4205137
:1012C80001F0D8FD20464FF4006101F0D3FD20461F
:1012D8004FF4205101F0CEFD20464FF4006101F09B
:1012E800C9FD20464FF4284101F0C4FD20464FF4C3
:1012F800084101F0BFFD20464FF4205101F0BAFD2E
:1013080020464FF4006101F0B5FD20464FF4284116
:1013180001F0B0FD20464FF4084101F0ABFD204636
:101328004FF4205101F0A6FD20464FF4006101F072
:10133800A1FD20464FF4284101F09CFD20464FF4C2
:10134800084101F097FD45F4807520464FF4284187
:1013580001F090FD6D0020464FF4084101F08AFD30
:1013680005F4807B20464FF4284101F083FD6D0091
:1013780020464FF408414FEACB1B01F07BFD05F4F2
:1013880080794BF420539BB24FEAC9194BF4006B98
:10139800194620461FFA8BFB49F4205A03931FFA7B
:1013A8008AFA01F067FD6D002046594649F4006944
:1013B80001F060FD1FFA89F92046514605F4807650
:1013C80001F058FDF6012046494601F053FD46F468
:1013D800205292B246F4006611462046B6B26D001D
:1013E800049201F047FD0596314605F480762046C3
:1013F800F60101F03FFD46F4205292B21146204614
:1014080046F400660692B6B201F034FD6D00079608
:10141800314605F480762046F6016D0001F02AFD7C
:1014280005F4807746F4205292B2FF0146F4006634
:1014380011462046B6B247F4205808921FFA88F899
:1014480001F018FD6D002046314647F40067099603
:10145800BFB201F00FFD05F480762046414601F049
:1014680009FDF6012046394601F004FD46F42052F4
:1014780092B246F4006611462046B6B22D02029298
:1014880005F4004501F0F6FC2046314601F0F2FC77
:1014980045F4205C1FFA8CFC45F400656146204643
:1014A800ADB2CDF804C001F0E5FC2946204601F0B4
:1014B800E1FC20464FF4284101F0DCFC20464FF4C3
:1014C800084101F0D7FC039B2046194601F0D2FCE5
:1014D8002046594601F0CEFC2046514601F0CAFC90
:1014E8002046494601F0C6FC2046049901F0C2FC9A
:1014F8002046059901F0BEFC2046069901F0BAFC89
:101508002046079901F0B6FC2046089901F0B2FC84
:101518002046099901F0AEFC2046414601F0AAFC9C
:101528002046394601F0A6FC029A2046114601F0F1
:10153800A1FC2046314601F09DFCDDF804C02046A0
:10154800614601F097FC2046294601F093FC2046AD
:101558004FF4205101F08EFC20464FF4006101F059
:1015680089FC20464FF4205101F084FC20464FF4BA
:10157800006101F07FFC20464FF4205101F07AFC15
:1015880020464FF4006101F075FC20464FF42841D5
:1015980001F070FC20464FF4084101F06BFC204636
:1015A8004FF4205102E000BF0004024001F062FC49
:1015B80020464FF4006101F05DFC20464FF42841BD
:1015C80001F058FC20464FF4084101F053FC204636
:1015D8004FF4205101F04EFC20464FF4006101F019
:1015E80049FC20464FF4284101F044FC20464FF4C2
:1015F800084101F03FFC20464FF4205101F03AFC2D
:1016080020464FF4006101F035FC0B9B43F48075D4
:101618006D0020464FF4284105F4807B01F02AFC38
:101628006D0020464FF408414FEACB1B01F022FC25
:1016380005F480794BF420539BB24FEAC9194BF457
:10164800006B194620461FFA8BFB49F4205A039376
:101658001FFA8AFA01F00EFC6D002046594649F43B
:10166800006901F007FC1FFA89F92046514605F484
:10167800807601F0FFFBF6012046494601F0FAFBAF
:1016880046F4205292B246F4006611462046B6B29D
:101698006D00049201F0EEFB0596314605F4807664
:1016A8002046F60101F0E6FB46F4205292B21146BC
:1016B800204646F400660692B6B201F0DBFB6D00E8
:1016C8000796314605F480762046F6016D0001F054
:1016D800D1FB05F4807746F4205292B2FF0146F41C
:1016E800006611462046B6B247F4205808921FFA01
:1016F80088F801F0BFFB6D002046314647F40067CB
:101708000996BFB201F0B6FB05F480762046414643
:1017180001F0B0FBF6012046394601F0ABFB46F478
:10172800205292B246F4006611462046B6B22D0207
:10173800029205F4004501F09DFB2046314601F078
:1017480099FB45F4205C1FFA8CFC45F40065614662
:101758002046ADB2CDF804C001F08CFB29462046E6
:1017680001F088FB20464FF4284101F083FB204616
:101778004FF4084101F07EFB039B2046194601F017
:1017880079FB2046594601F075FB2046514601F089
:1017980071FB2046494601F06DFB2046049901F093
:1017A80069FB2046059901F065FB2046069901F082
:1017B80061FB2046079901F05DFB2046089901F07E
:1017C80059FB2046099901F055FB2046414601F096
:1017D80051FB2046394601F04DFB029A204611463E
:1017E80001F048FB2046314601F044FBDDF804C017
:1017F8002046614601F03EFB2046294601F03AFBAF
:1018080020464FF4205101F035FB20464FF400618B
:1018180001F030FB20464FF4205101F02BFB20460D
:101828004FF4006101F026FB20464FF4205101F0EF
:1018380021FB20464FF4006101F01CFB20464FF4C9
:10184800284101F017FB20464FF4084101F012FB34
:1018580020464FF4205101F00DFB20464FF4006163
:1018680001F008FB20464FF4284101F003FB204615
:101878004FF4084101F0FEFA20464FF4284101F0E8
:10188800F9FA20464FF4084101F0F4FA20464FF4E3
:10189800205101F0EFFA20464FF4006101F0EAFA16
:1018A80020464FF4205101F0E5FA20464FF400613C
:1018B80001F0E0FA0A9B20464FF428411D0901F087
:1018C800D9FA20464FF4084101F0D4FA20464FF4E3
:1018D800205101F0CFFA20464FF4006101F0CAFA16
:1018E80045F4807520464FF4205101F0C3FA6D008D
:1018F80020464FF4006101F0BDFA6D0020464FF418
:10190800205101F0B7FA6D0020464FF4006101F054
:10191800B1FA6D0020464FF4205101F0ABFA6D008A
:1019280005F48076F60120464FF4006101F0A2FA32
:101938006D0046F42051204601F09CFA46F40061FF
:1019480005F48076F601204601F094FA6D0046F41D
:101958002051204601F08EFA46F4006105F48076A5
:10196800F601204601F086FA2D0246F42051204661
:1019780001F080FA05F40045204646F4006101F0C4
:1019880079FA45F42051204601F074FA204645F4CE
:10199800006101F06FFA0A9B1D0105F0F00545F49E
:1019A80080756D0020464FF4284105F4807601F0DB
:1019B80061FAF60120464FF4084101F05BFA6D0028
:1019C80046F42051204601F055FA46F4006105F42A
:1019D8008076F601204601F04DFA6D0046F420515C
:1019E800204601F047FA46F4006105F48076F601D6
:1019F800204601F03FFA6D0046F42051204601F0E0
:101A080039FA05F48075204646F4006101F032FA8F
:101A1800ED0145F42051204601F02CFA204645F40A
:101A2800006101F027FA20464FF4205101F022FA14
:101A380020464FF4006101F01DFA20464FF4205172
:101A480001F018FA20464FF4006101F013FA20461D
:101A58004FF4205101F00EFA20464FF4006101F0D6
:101A680009FA20464FF4205101F004FA20464FF4B9
:101A7800006101F0FFF920464FF4205101F0FAF916
:101A880020464FF4006101F0F5F920464FF420514B
:101A980001F0F0F920464FF4006101F0EBF920461F
:101AA8004FF4205101F0E6F920464FF4006101F0AF
:101AB800E1F920464FF4205101F0DCF920464FF4BB
:101AC800006101F0D7F920464FF4205101F0D2F916
:101AD80020464FF4006101F0CDF920464FF4205123
:101AE80001F0C8F920464FF4006101F0C3F920461F
:101AF8004FF4205101F0BEF920464FF4006101F087
:101B0800B9F920464FF4205101F0B4F920464FF4BA
:101B1800006101F0AFF920464FF4205101F0AAF915
:101B280020464FF400610DB0BDE8F04F01F0A2B9B6
:101B38002DE9F04F4FF42051B5B00446D34801F0D9
:101B480099F9D2484FF4006101F094F9CF484FF465
:101B5800205101F08FF9CD484FF4006101F08AF966
:101B6800CA484FF4205101F085F9C8484FF4006184
:101B780001F080F9C5484FF4284101F07BF9C348CA
:101B88004FF4084101F076F9C0484FF4205101F0B4
:101B980071F9BE484FF4006101F06CF9BB484FF48D
:101BA800284101F067F9B9484FF4084101F062F99A
:101BB800B6484FF4205101F05DF9B4484FF4006184
:101BC80001F058F9B1484FF4284101F053F9AF48F2
:101BD8004FF4084101F04EF9AC484FF4284101F0A8
:101BE80049F9AA484FF4084101F044F9A7484FF4CD
:101BF800284101F03FF9A5484FF4084101F03AF9AE
:101C0800A2484FF4205101F035F9A0484FF4006183
:101C180001F030F99D484FF4205101F02BF99B4811
:101C28004FF4006101F026F998484FF4205101F073
:101C380021F996484FF4006101F01CF993484FF4DC
:101C4800205101F017F991484FF4006101F012F9A1
:101C58008E484FF4205101F00DF98C484FF4006183
:101C680001F008F989484FF4205101F003F9874839
:101C78004FF4006101F0FEF884484FF4205101F060
:101C8800F9F882484FF4006101F0F4F87F484FF406
:101C9800205101F0EFF87D484FF4006101F0EAF8B7
:101CA8007A484FF4284101F0E5F878484FF40841A4
:101CB80001F0E0F875484FF4284101F0DBF873486B
:101CC8004FF4084101F0D6F870484FF4205101F064
:101CD800D1F86E484FF4006101F0CCF86B484FF42E
:101CE800205101F0C7F869484FF4006101F0C2F8CB
:101CF80066484FF4205101F0BDF864484FF4006184
:101D080001F0B8F861484FF4205101F0B3F85F488A
:101D18004FF4006101F0AEF85C484FF4205101F037
:101D2800A9F85A484FF4006101F0A4F857484FF455
:101D3800284101F09FF855484FF4084101F09AF8FE
:101D480052484FF4284101F095F850484FF40841A3
:101D580001F090F84D484FF4205101F08BF84B48B2
:101D68004FF4006101F086F848484FF4205101F023
:101D780081F846484FF4006101F07CF843484FF47D
:101D8800205101F077F841484FF4006101F072F8F2
:101D98003E484FF4284101F06DF83C484FF40841A3
:101DA80001F068F839484FF4205101F063F83748DA
:101DB8004FF4006101F05EF834484FF4284101F017
:101DC80059F832484FF4084101F054F82F484FF4BD
:101DD800205101F04FF82D484FF4006101F04AF806
:101DE8002A484FF4284101F045F828484FF40841A3
:101DF80001F040F825484FF4205101F03BF8234802
:101E08004FF4006101F036F820484FF4284101F002
:101E180031F81E484FF4084101F02CF81B484FF4E4
:101E2800205101F027F819484FF4006101F022F819
:101E380016484FF4205101F01DF814484FF4006182
:101E480001F018F811484FF4205101F013F80F4829
:101E58004FF4006101F00EF80C484FF4205101F0E6
:101E680009F80A484FF4006101F004F807484FF4F4
:101E7800205100F0FFFF05484FF4006100F0FAFF21
:101E880002484FF4205100F0F5FF01E00004024041
:101E9800CA484FF4006100F0EDFFC8484FF42051E4
:101EA80000F0E8FFC5484FF4006100F0E3FFC348C5
:101EB8004FF4205100F0DEFFC0484FF4006100F0FD
:101EC800D9FFBE484FF4284100F0D4FFBB484FF477
:101ED800084100F0CFFFB9484FF4284100F0CAFF8D
:101EE800B6484FF4084100F0C5FFB4484FF42051FC
:101EF80000F0C0FFB1484FF4006100F0BBFFAF48ED
:101F08004FF4205100F0B6FFAC484FF4006100F0E8
:101F1800B1FFAA484FF4205100F0ACFFA7484FF496
:101F2800006100F0A7FFA5484FF4205100F0A2FF80
:101F3800A2484FF4006100F09DFFA0484FF42051E3
:101F480000F098FF9D484FF4006100F093FF9B4814
:101F58004FF4284100F08EFF98484FF4084100F0F4
:101F680089FF96484FF4284100F084FF93484FF4C6
:101F7800084100F07FFF91484FF4205100F07AFFAC
:101F88008E484FF4006100F075FF8C484FF42051E3
:101F980000F070FF89484FF4006100F06BFF87483C
:101FA8004FF4205100F066FF84484FF4006100F0C0
:101FB80061FF82484FF4284100F05CFF7F484FF4EE
:101FC800084100F057FF7D484FF4205100F052FFC0
:101FD8007A484FF4006100F04DFF78484FF42841EB
:101FE80000F048FF75484FF4084100F043FF73487C
:101FF8004FF4284100F03EFF70484FF4084100F0CC
:1020080039FF6E484FF4205100F034FF6B484FF40D
:10201800006100F02FFF69484FF4205100F02AFFBB
:1020280066484FF4006100F025FFC4F30326E3B2CD
:1020380046EA0316F6B246F4807643F480735B00F2
:10204800760075005800C4F30714410044F4807BFF
:102058006C00039060004A004FEA420ECDF818E089
:102068000293049143004FEA4B0B06990F934FEAF2
:102078004B0A06F4807604F4807400F480704FEA0A
:102088004A09059249005A000B960D940E900F9C30
:10209800029E039807914FEA49085300490005F446
:1020A800807508914FEA480C0C9504F4807403F489
:1020B800807502F480721B0206F4807600F480704A
:1020C8004FEA4C0E0F941092119512931396149098
:1020D80004AA3CCA089E08984FEA4E0707F4807184
:1020E80002F4807203F4807304F4807405F480753C
:1020F80006F48076000209911592169317941895A4
:1021080019961A90099A0B9B0C98390201F400460B
:10211800D701DD010DA90EC9C401C801D101DA0139
:10212800109BDB012093119BDB010293129B03F4AC
:1021380000430393139BDB010493149BDB0105937A
:10214800159BDB010693169BDB010793179BDB01AD
:102158000893189BDB010993199BDB010A931A9BCF
:102168000BF4807B4FEACB1B03F400430AF4807A1C
:102178004FEACA1A0B9309F480794BF420534FEABB
:10218800C9190C9308F480784AF420534FEAC81808
:102198000E930CF4807C49F420534FEACC1C4AF48B
:1021A800006A109349F4006948F420530EF4807EC5
:1021B8004FEACE1ECDF83CA002E000BF000402406A
:1021C800CDF8449012934CF4205314934EF42053BA
:1021D800159347F42053169346F4205346F40066AB
:1021E8001893199644F4205345F420561A961B93D5
:1021F80040F4205641F420531C961D9342F4205677
:10220800209B1E96209E43F420531F9346F40063A0
:10221800029E46F420562096029E46F400662196B9
:10222800039E46F420562296039E46F400662396A3
:10223800049E46F420562496049E46F4006625968D
:10224800059E46F420562696059E46F40066279677
:10225800069E46F420562896069E48F4006847F4E1
:10226800006746F40066CDF84C8017972996079EBC
:1022780046F420562A96079E46F400662B96089E3A
:1022880046F420562C96089E46F400662D96099E24
:1022980046F420562E96099E46F400662F960A9E0E
:1022A80046F4205630960A9E46F4006631960B9EF8
:1022B80046F4205632960B9E4BF4006B46F40066AB
:1022C8001FFA8BFADDF838B033960C9E1FFA8BF99B
:1022D800DDF840B0B6B201961FFA8BF70F9EDDF815
:1022E80044B01FFA86F81FFA8BF6DDF848B01FFADB
:1022F8008BFBCDF818B0DDF84CB04CF4006C1FFA2D
:102308008BFB1FFA8CFCCDF820B0CDF814C0DDF89B
:1023180050B0DDF854C01FFA8BFB1FFA8CFCCDF8C7
:1023280010B0CDF808C0DDF858B0DDF85CC01FFA71
:102338008BFB1FFA8CFCCDF81CB0CDF824C0DDF85F
:1023480060B0DDF864C045F4006544F400641FFA29
:102358008BFB1FFA8CFCADB2A4B2CDF828B0CDF837
:102368002CC0DDF868B00D95DDF86CC00F941D9D8C
:102378001C9C42F400621FFA8BFB1FFA8CFCA4B26F
:10238800ADB292B29BB2CDF830B0CDF838C010944F
:102398001295DDF878B01592DDF87CC0179320AA65
:1023A8003CCA4EF4006E40F4006041F400611FFA2C
:1023B8008EFE1FFA8BFB1FFA8CFC92B29BB2A4B262
:1023C800ADB280B289B2CDF80CE0CDF850B0CDF8FE
:1023D80058C0189219931A94119013911B95DDF80F
:1023E80090B0DDF894C026AA3CCADDF8C8E01FFA10
:1023F8008BFB1FFA8CFC92B2CDF870B0DDF8A8B058
:10240800CDF874C01E92DDF8ACC02C9A1FFA8BFB75
:102418009BB2A4B2ADB21FFA8CFC92B2CDF888B0D0
:10242800DDF8C0B01F9320942195CDF88CC024927C
:102438002DAB38CBDDF8C4C0339A1FFA8BFBA4B29E
:10244800ADB29BB2CDF8A0B01FFA8CFC92B2DDF809
:1024580004B0269427952593CDF8A4C01FFA8EF5CD
:102468002A9242F2082472484FF4284100F002FDF3
:102478006F484FF4084100F0FDFC6D48594600F0E4
:10248800F9FC6B48514600F0F5FC6948494600F0F4
:10249800F1FC6748414600F0EDFC6548394600F01C
:1024A800E9FC6348314600F0E5FC6148069900F014
:1024B800E1FC5F48089900F0DDFC5D48049900F0F4
:1024C800D9FC5B48059900F0D5FC5948029900F001
:1024D800D1FC5748039900F0CDFC5548079900F006
:1024E800C9FC5348099900F0C5FC51480A9900F005
:1024F800C1FC4F480B9900F0BDFC4D484FF42841F2
:1025080000F0B8FC4A484FF4084100F0B3FC4848D2
:102518000C9900F0AFFC46480D9900F0ABFC44481C
:102528000E9900F0A7FC42480F9900F0A3FC404820
:10253800109900F09FFC3E48119900F09BFC3C4824
:10254800129900F097FC3A48139900F093FC384828
:10255800149900F08FFC3648159900F08BFC34482C
:10256800169900F087FC3248179900F083FC304830
:10257800189900F07FFC2E48199900F07BFC2C4834
:102588001A9900F077FC2A481B9900F073FC284838
:102598004FF4284100F06EFC25484FF4084100F044
:1025A80069FC23481C9900F065FC21481D9900F03E
:1025B80061FC1F481E9900F05DFC1D481F9900F042
:1025C80059FC1B48209900F055FC1948219900F046
:1025D80051FC1748229900F04DFC1548239900F04A
:1025E80049FC1348249900F045FC1148259900F04E
:1025F80041FC0F48269900F03DFC0D48279900F052
:1026080039FC0B48289900F035FC0948299900F055
:1026180031FC0748294600F02DFC05482A9900F0AE
:1026280029FC013C7FF41FAF35B0BDE8F08F00BF37
:10263800000402402DE9F0414FF420518046D4486F
:1026480000F018FCD2484FF4006100F013FCD048A9
:102658004FF4205100F00EFCCD484FF4006100F01B
:1026680009FCCB484FF4205100F004FCC8484FF453
:10267800006100F0FFFBC6484FF4284100F0FAFB68
:10268800C3484FF4084100F0F5FBC1484FF420510E
:1026980000F0F0FBBE484FF4006100F0EBFBBC48D3
:1026A8004FF4284100F0E6FBB9484FF4084100F028
:1026B800E1FBB7484FF4205100F0DCFBB4484FF47D
:1026C800006100F0D7FBB2484FF4284100F0D2FB7C
:1026D800AF484FF4084100F0CDFBAD484FF4284116
:1026E80000F0C8FBAA484FF4084100F0C3FBA84813
:1026F8004FF4284100F0BEFBA5484FF4084100F014
:10270800B9FBA3484FF4205100F0B4FBA0484FF4A4
:10271800006100F0AFFB9E484FF4205100F0AAFB87
:102728009B484FF4006100F0A5FB99484FF42051F5
:1027380000F0A0FB96484FF4006100F09BFB944822
:102748004FF4205100F096FB91484FF4006100F0DF
:1027580091FB8F484FF4205100F08CFB8C484FF4CC
:10276800006100F087FB8A484FF4205100F082FB9B
:1027780087484FF4006100F07DFB85484FF42051F5
:1027880000F078FB82484FF4006100F073FB80484A
:102798004FF4205100F06EFB7D484FF4006100F0CB
:1027A80069FB7B484FF4284100F064FB78484FF4FC
:1027B800084100F05FFB76484FF4284100F05AFBCF
:1027C80073484FF4084100F055FB71484FF420510D
:1027D80000F050FB6E484FF4006100F04BFB6C4872
:1027E8004FF4205100F046FB69484FF4006100F0B7
:1027F80041FB67484FF4205100F03CFB64484FF41C
:10280800006100F037FB62484FF4205100F032FBC2
:102818005F484FF4006100F02DFB5D484FF42051F4
:1028280000F028FB5A484FF4006100F023FB584899
:102838004FF4284100F01EFB55484FF4084100F0C2
:1028480019FB53484FF4284100F014FB50484FF44B
:10285800084100F00FFB4E484FF4205100F00AFBEE
:102868004B484FF4006100F005FB49484FF42051F4
:1028780000F000FB46484FF4006100F0FBFA4448C2
:102888004FF4205100F0F6FA41484FF4006100F08F
:10289800F1FA3F484FF4284100F0ECFA3C484FF475
:1028A800084100F0E7FA3A484FF4205100F0E2FA04
:1028B80037484FF4006100F0DDFA35484FF42841FD
:1028C80000F0D8FA32484FF4084100F0D3FA304803
:1028D8004FF4205100F0CEFA2D484FF4006100F07B
:1028E800C9FA2B484FF4284100F0C4FA28484FF49D
:1028F800084100F0BFFA26484FF4205100F0BAFA18
:1029080023484FF4006100F0B5FA21484FF42841FC
:1029180000F0B0FA1E484FF4084100F0ABFA1C482A
:102928004FF4205100F0A6FA19484FF4006100F066
:10293800A1FA17484FF4205100F09CFA14484FF4BC
:10294800006100F097FA12484FF4205100F092FA13
:102958000F484FF4006100F08DFA0D484FF42051F4
:1029680000F088FA0A484FF4006100F083FA08483A
:102978004FF4205100F07EFA05484FF4006100F052
:1029880079FA03484FF4205100F074FA02E000BFCE
:1029980000040240A5484FF4006100F06BFAA34818
:1029A8004FF4205100F066FAA0484FF4006100F09F
:1029B80061FA9E484FF4205100F05CFA9B484FF4AE
:1029C800006100F057FA99484FF4284100F052FA94
:1029D80096484FF4084100F04DFA94484FF42841C6
:1029E80000F048FA91484FF4084100F043FA8F4844
:1029F8004FF4205100F03EFA8C484FF4006100F08B
:102A080039FA8A484FF4205100F034FA87484FF4D5
:102A1800006100F02FFA85484FF4205100F02AFA9F
:102A280082484FF4006100F025FA80484FF42051A5
:102A380000F020FA7D484FF4006100F01BFA7B4853
:102A48004FF4205100F016FA78484FF4006100F076
:102A580011FA76484FF4284100F00CFA73484FF405
:102A6800084100F007FA71484FF4284100F002FAD3
:102A78006E484FF4084100F0FDF96C484FF42051BE
:102A880000F0F8F969484FF4006100F0F3F967487D
:102A98004FF4205100F0EEF964484FF4006100F063
:102AA800E9F962484FF4205100F0E4F95F484FF427
:102AB800006100F0DFF95D484FF4284100F0DAF9D1
:102AC8005A484FF4084100F0D5F958484FF42051BE
:102AD80000F0D0F955484FF4006100F0CBF95348A5
:102AE8004FF4284100F0C6F950484FF4084100F06F
:102AF800C1F94E484FF4284100F0BCF94B484FF457
:102B0800084100F0B7F949484FF4205100F0B2F9F4
:102B180046484FF4006100F0ADF944484FF42051A5
:102B280000F0A8F941484FF4006100F0A3F900252E
:102B380046F2186718F805403C484FF4284124F03D
:102B48007F0600F097F9360238484FF4084100F044
:102B580091F946F42051354800F08CF946F40061AB
:102B680004F040067602314800F084F946F420511A
:102B78002E4800F07FF946F4006104F02006B60202
:102B88002A4800F077F946F42051284800F072F9F5
:102B980046F4006104F01006F602244800F06AF9D1
:102BA80046F42051214800F065F946F4006104F02C
:102BB800080636031D4800F05DF946F420511B480D
:102BC80000F058F946F4006104F00406760317484B
:102BD80000F050F946F42051144800F04BF946F43F
:102BE800006104F00206B603104800F043F90F48EC
:102BF80046F4205100F03EF9E4030C4846F4006125
:102C080000F038F944F42051084801F4284100F054
:102C180031F94DF6FF712140044841F40061013556
:102C280000F028F9BD4285D1BDE8F08100040240DA
:102C380008B53C4B984224D03B4B98422BD03B4B99
:102C4800984232D03A4B984239D03A4B984240D0C9
:102C5800394B984247D0394B98424ED0384B98421E
:102C680055D0384B984200D008BD01214FF48070F0
:102C780000F0A2FA4FF480700021BDE8084000F08F
:102C88009BBA0120014600F097FA01200021BDE817
:102C9800084000F091BA0220012100F08DFA0220CC
:102CA8000021BDE8084000F087BA0420012100F0A7
:102CB80083FA04200021BDE8084000F07DBA08200E
:102CC800012100F079FA08200021BDE8084000F051
:102CD80073BA1020012100F06FFA10200021BDE81E
:102CE800084000F069BA2020012100F065FA202090
:102CF8000021BDE8084000F05FBA4020012100F043
:102D08005BFA40200021BDE8084000F055BA802059
:102D1800012100F051FA80200021BDE8084000F0B0
:102D28004BBA00BF00000240000402400008024005
:102D3800000C02400010024000140240001802403B
:102D4800001C02400020024000222DE9F007134633
:102D58000E6801274FF0030803E001330232102BFD
:102D68002BD007FA03F404EA0605A542F5D1D0F8FA
:102D7800009091F804C008FA02F4E44304EA09094F
:102D8800C0F80090D0F800900CFA02FA0CF1FF3C61
:102D98004AEA0909BCF1010FC0F8009010D9C568CA
:102DA80091F807C02C40C460C5680CFA02F40133DE
:102DB8002C430232102BC460D3D1BDE8F007704712
:102DC800D0F808A091F8059091F806C004EA0A0A1C
:102DD800C0F808A0D0F808A009FA02F949EA0A09D7
:102DE800C0F80890D0F8049029EA050545604568C0
:102DF8000CFA03FC1FFA8CFC4CEA05054560CEE78B
:102E080000234FF6FF720260037143718371C3712F
:102E1800704700BF82B04FF480330193019B0B438E
:102E28000193019BC361C161019BC361C3690193A4
:102E3800C369019302B07047036919420CBF0020AF
:102E480001207047006980B2704700BF436919428A
:102E58000CBF002001207047406980B2704700BF56
:102E680001837047418370470AB9418370470183E2
:102E7800704700BF416170474369594041617047DD
:102E8800CB08083301F0070130B4890050F823500B
:102E98000F2404FA01F425EA040440F8234050F80A
:102EA800234002FA01F2144340F8234030BC704733
:102EB8000A4B1968002241F0010119609A601968EB
:102EC80021F0847121F4803119600549596019682D
:102ED80021F480211960DA60704700BF0038024091
:102EE80010300024024B00221A701870704700BF7F
:102EF8000238024082B000230B4A019313689B03F7
:102F080009D5019B01330193019B074B1868C0F356
:102F1800404002B07047019B01330193019BB3F518
:102F2800A06FEBD1F1E700BF00380240034B1A68ED
:102F380022F0F80242EAC0001860704700380240E8
:102F4800014B1860704700BF00004742064B002243
:102F580001281A701A7004D0042801D105221A70A9
:102F680070471870704700BF70380240014B1860F6
:102F7800704700BF800E474210B40143019C41EAEC
:102F880082125B08591E42EA0464034B44EA014179
:102F9800596010BC704700BF00380240014B1860F0
:102FA800704700BF600047428001034B40EA01714F
:102FB800C3F88410704700BF00380240014B186006
:102FC800704700BF68004742014B1860704700BF58
:102FD8004C004742034B9A6822F0EC6210430143CD
:102FE8009960704700380240034B9A6822F0784293
:102FF800104301439960704700380240034B9A68B8
:1030080022F0030210439860704700BF0038024066
:10301800024B986800F00C00704700BF003802406F
:10302800034B9A6822F0F00210439860704700BF83
:1030380000380240034B9A6822F4E052104398602B
:10304800704700BF00380240034B9A6822F4604280
:1030580042EAC00098607047003802401F4A9368EF
:1030680003F00C03042B10B41CD0082B1DD01C4BF0
:1030780003601A491B4A8C68C4F30314145D23FACD
:1030880004F343608C68C4F38224145D23FA04F4C7
:1030980084608968C1F34231525C23FA02F3C36049
:1030A80010BC7047104B0360E3E7546851685268DE
:1030B80064024CBF0C4B0A4B01F03F01C2F388126B
:1030C800B3FBF1F303FB02F3044A5268C2F3014273
:1030D80001325200B3FBF2F30360CAE70038024042
:1030E8000024F40048CC002000127A0000F4407359
:1030F800B3F5407F09D1084B996820F0704221F45C
:10310800F81122F440720A439A60034B00051A6FC3
:10311800000D10431867704700380240014B1860D3
:10312800704700BF3C0E4742014B1860704700BF14
:10313800400E4742014B1860704700BF5C01474290
:10314800044B1A6B19B922EA000018637047104340
:103158001863704700380240044B5A6B19B922EAC9
:1031680000005863704710435863704700380240A6
:10317800044B9A6B19B922EA000098637047104310
:103188009863704700380240044B1A6C19B922EA58
:1031980000001864704710431864704700380240F4
:1031A800044B5A6C19B922EA00005864704710435E
:1031B8005864704700380240044B1A6919B922EA6A
:1031C80000001861704710431861704700380240CA
:1031D800044B5A6919B922EA000058617047104334
:1031E8005861704700380240044B9A6919B922EABD
:1031F800000098617047104398617047003802409A
:10320800044B1A6A19B922EA000018627047104381
:103218001862704700380240044B5A6A19B922EA0A
:1032280000005862704710435862704700380240E7
:10323800044B1A6D19B922EA00001865704710434B
:103248001865704700380240044B5A6D19B922EAD4
:1032580000005865704710435865704700380240B1
:10326800044B9A6D19B922EA00009865704710431B
:103278009865704700380240044B1A6E19B922EA63
:1032880000001866704710431866704700380240FF
:10329800044B5A6E19B922EA000058667047104369
:1032A8005866704700380240044B1A7819B922EA68
:1032B8000000187070471043187070470D380240AE
:1032C8004309012B0BD0022B064B0CBF1B6F5B6F06
:1032D80000F01F0023FA00F000F001007047014BD6
:1032E8001B68F5E700380240024B5A6F42F08072C3
:1032F8005A67704700380240034BDB6818420CBF1E
:1033080000200120704700BF00380240014B1870B0
:10331800704700BF0E380240F0B5394D394B83B0C5
:10332800284600241C60FFF799FEFCF7AFFF6A6887
:10333800354BA3FB02125209B2F1807F09D2334BFD
:10334800013A5A60324AF02182F8231007229C6021
:103358001A6008200121FFF7F3FE01234FF482527F
:1033680000928DF8043000228DF8073029488DF836
:103378000620022369468DF80530FFF7E5FC264B49
:10338800264C4FF428421A804AF6AA221A8023684B
:103398002268D21A312AFBD9FDF768F91F4B1B683E
:1033A8002268D21A312AFBD90020FEF7C1FB40F669
:1033B800FF70FEF7BDFB3227FEB23225E9B20022CC
:1033C80030460135FDF768FF642DF7D10137642FCA
:1033D800F2D123682268D21A632AFBD91048FFF772
:1033E80029F9226823689B1A632BFBD90D48FFF73C
:1033F80021F90A4B1A6823689B1A632BFBD9EDE75E
:1034080064CC002060CC00201F85EB5110E000E068
:1034180000ED00E0000C02400000002058CC002025
:10342800040000201C660020002100F004B80C4BAA
:103438005B58435004310B480B4B42189A42FFF437
:10344800F6AF0A4A00F003B8002342F8043B084BE1
:103458009A42FFF4F9AFFCF719FFFFF75DFF7047D9
:10346800803400080000002058CC002058CC0020F0
:0834780074CC0020FFF7FEBF39
:10348000AAAA0000FFFFFFFFFFFFFFFFFFFFFFFFF4
:10349000FFFFFFFFFFFFFFFFFFFFFFFFFFFFFFFF3C
:1034A000FFFFFFFFFFFFFFFFFFFFFFFFFFFFFFFF2C
:1034B000FFFFFFFFFFFFFFFFFFFFFFFFFFFFFFFF1C
:1034C000FFFFFFFFFFFFFFFFFFFFFFFFFFFFFFFF0C
:1034D000FFFFFFFFFFFFFFFFFFFFFFFFFFFFFFFFFC
:1034E000FFFFFFFFFFFFFFFFFFFFFFFFFFFFFFFFEC
:1034F000FFFFFFFFFFFFFFFFFFFFFFFFFFFFFFFFDC
:10350000FFFFFFFFFFFFFFFFFFFFFFFFFFFFFFFFCB
:10351000FFFFFFFFFFFFFFFFFFFFFFFFFFFFFFFFBB
:10352000FFFFFFFFFFFFFFFFFFFFFFFFFFFFFFFFAB
:10353000FFFFFFFFFFFFFFFFFFFFFFFFFFFFFFFF9B
:10354000FFFFFFFFFFFFFFFFFFFFFFFFFFFFFFFF8B
:10355000FFFFFFFFFFFFFFFFFFFFFFFFFFFFFFFF7B
:10356000FFFFFFFFFFFFFFFFFFFFFFFFFFFFFFFF6B
:10357000FFFFFFFFFFFFFFFFFFFFFFFFFFFFFFFF5B
:10358000FFFFFFFFFFFFFFFFFFFFFFFFFFFFFFFF4B
:10359000FFFFFFFFFFFFFFFFFFFFFFFFFFFFFFFF3B
:1035A000FFFFFFFFFFFFFFFFFFFFFFFFFFFFFFFF2B
:1035B000FFFFFFFFFFFFFFFFFFFFFFFFFFFFFFFF1B
:1035C000FFFFFFFFFFFFFFFFFFFFFFFFFFFFFFFF0B
:1035D000FFFFFFFFFFFFFFFFFFFFFFFFFFFFFFFFFB
:1035E000FFFFFFFFFFFFFFFFFFFFFFFFFFFFFFFFEB
:1035F000FFFFFFFFFFFFFFFFFFFFFFFFFFFFFFFFDB
:10360000FFFFFFFFFFFFFFFFFFFFFFFFFFFFFFFFCA
:10361000FFFFFFFFFFFFFFFFFFFFFFFFFFFFFFFFBA
:10362000FFFFFFFFFFFFFFFFFFFFFFFFFFFFFFFFAA
:10363000FFFFFFFFFFFFFFFFFFFFFFFFFFFFFFFF9A
:10364000FFFFFFFFFFFFFFFFFFFFFFFFFFFFFFFF8A
:10365000FFFFFFFFFFFFFFFFFFFFFFFFFFFFFFFC7D
:10366000CFC9C66933900600600600600600600698
:10367000006006006006006006006006006006004C
:10368000600630663999CCCCFFFFFFFFFFFFFFFFDC
:10369000FFFFFFFFFFFFFFFFFFFFFFFFFFFFFFFF3A
:1036A000FFFFFFFFFFFFFFFFFFFFFFFFFFFFFFFF2A
:1036B000FFFFFFFFFFFFFFFFFFFFFFFFFFFFFFFF1A
:1036C000FFFFFFFFFFFFFFFFFFFFFFFFFFFFFFFF0A
:1036D000FFFFFFFFFFFFFFFFFFFFFFFFFFFFFFFFFA
:1036E000FFFFFFFFFFFFFFFFFFFFFFFFFFFFFFFFEA
:1036F000FFFFFFFFFFFFFFFFFFFFFFFFFFFFFFFFDA
:10370000FFFFFFFFFFFFFFFFFFFFFFFFFFFFFFFFC9
:10371000FFFFFFFFFFFFFFFFFFFFFFFFFFFFFFFFB9
:10372000FFFFF99C669006006006006006006006D8
:10373000006006006006006006006006006006008B
:1037400060060060060060060060060060063396B2
:1037500069CCFFFFFFFFFFFFFFFFFFFFFFFFFFFF42
:10376000FFFFFFFFFFFFFFFFFFFFFFFFFFFFFFFF69
:10377000FFFFFFFFFFFFFFFFFFFFFFFFFFFFFFFF59
:10378000FFFFFFFFFFFFFFFFFFFFFFFFFFFFFFFF49
:10379000FFFFFFFFFFFFFFFFFFFFFFFFFFFFFFFF39
:1037A000FFFFFFFFFFFFFFFFFFFFFFFFFFFFFFFF29
:1037B000FFFFFFFFFFFFFFFFFFFFFFFFFFFFFFFF19
:1037C000FFFFFFFFFFFFFFFFFFFFFFFFFFFFFFFF09
:1037D000FFFFFFFFFFFFFFFFFFFFFFFFFFFFFFFFF9
:1037E000FFCCC3360060060060060060060060067D
:1037F00000600600600600600600600600600600CB
:10380000600600600600600600600600600600605A
:103810000600600600600600600600600699CFFFA3
:10382000FFFFFFFFFFFFFFFFFFFFFFFFFFFFFFFFA8
:10383000FFFFFFFFFFFFFFFFFFFFFFFFFFFFFFFF98
:10384000FFFFFFFFFFFFFFFFFFFFFFFFFFFFFFFF88
:10385000FFFFFFFFFFFFFFFFFFFFFFFFFFFFFFFF78
:10386000FFFFFFFFFFFFFFFFFFFFFFFFFFFFFFFF68
:10387000FFFFFFFFFFFFFFFFFFFFFFFFFFFFFFFF58
:10388000FFFFFFFFFFFFFFFFFFFFFFFFFFFFFFFF48
:10389000FFFFFFFFFFFFFFFFFFFFFFFFFFFFFFFF38
:1038A000FFFFFFFFCCC33600600600600600600625
:1038B000006006006006006006006006006006000A
:1038C000600600600600600633999C669006006002
:1038D00006006006006006006006006006006006E4
:1038E00000600600600699CFFFFFFFFFFFFFFFFFAC
:1038F000FFFFFFFFFFFFFFFFFFFFFFFFFFFFFFFFD8
:10390000FFFFFFFFFFFFFFFFFFFFFFFFFFFFFFFFC7
:10391000FFFFFFFFFFFFFFFFFFFFFFFFFFFFFFFFB7
:10392000FFFFFFFFFFFFFFFFFFFFFFFFFFFFFFFFA7
:10393000FFFFFFFFFFFFFFFFFFFFFFFFFFFFFFFF97
:10394000FFFFFFFFFFFFFFFFFFFFFFFFFFFFFFFF87
:10395000FFFFFFFFFFFFFFFFFFFFFFFFFFFFFFFF77
:10396000FFFFFFFFFFF669006006006006006006CB
:10397000006006006006006006306CCCFFFFFFFFB1
:10398000FFFFFFFFFF63900600600600699CCCC349
:1039900036339C9CCCF00600600699CFFF99C6692F
:1039A0000060060060060060060060060060060019
:1039B0006336FFFFFFFFFFFFFFFFFFFFFFFFFFFF7C
:1039C000FFFFFFFFFFFFFFFFFFFFFFFFFFFFFFFF07
:1039D000FFFFFFFFFFFFFFFFFFFFFFFFFFFFFFFFF7
:1039E000FFFFFFFFFFFFFFFFFFFFFFFFFFFFFFFFE7
:1039F000FFFFFFFFFFFFFFFFFFFFFFFFFFFFFFFFD7
:103A0000FFFFFFFFFFFFFFFFFFFFFFFFFFFFFFFFC6
:103A1000FFFFFFFFFFFFFFFFFFFFFFFFFFFFFFFFB6
:103A2000FFFFFFFFFFFFFFFFF99C639006006006AA
:103A30000060060060060060060060060060060088
:103A40006FFFFFF99C006306C9CFFFCCC006006082
:103A500006006FFF99C006006006FFF3360060069F
:103A600000699CFFFFFF99C0060060060060060029
:103A70006006006006006006306669FFFFFFFFFF1A
:103A8000FFFFFFFFFFFFFFFFFFFFFFFFFFFFFFFF46
:103A9000FFFFFFFFFFFFFFFFFFFFFFFFFFFFFFFF36
:103AA000FFFFFFFFFFFFFFFFFFFFFFFFFFFFFFFF26
:103AB000FFFFFFFFFFFFFFFFFFFFFFFFFFFFFFFF16
:103AC000FFFFFFFFFFFFFFFFFFFFFFFFFFFFFFFF06
:103AD000FFFFFFFFFFFFFFFFFFFFFFFFFFFFFFFFF6
:103AE000FFFFFFFFFFFFFFFFFFFFFFF33600600652
:103AF00000600600600600600600699CFFFFFFFF93
:103B0000F006006006006639FFF99C006006669FBB
:103B1000FF99C006006006006CCCFFFFFFCCF99C4B
:103B2000006006006006006669FFF6690060060036
:103B30006306FFFFFF6693060060060060060060F4
:103B400006006006CCFFFFFFFFFFFFFFFFFFFFFF48
:103B5000FFFFFFFFFFFFFFFFFFFFFFFFFFFFFFFF75
:103B6000FFFFFFFFFFFFFFFFFFFFFFFFFFFFFFFF65
:103B7000FFFFFFFFFFFFFFFFFFFFFFFFFFFFFFFF55
:103B8000FFFFFFFFFFFFFFFFFFFFFFFFFFFFFFFF45
:103B9000FFFFFFFFFFFFFFFFFFFFFFFFFFFFFFFF35
:103BA000FFFFFFFFFFFFFFFFFFFFFFFFFFFFF99C8E
:103BB000336006006006006006006006306C9CFF03
:103BC000FCCC66966999C99C006006006339FFFCCD
:103BD000CC33999CFFFCCC30600600600600633952
:103BE000FFFFFFFFFFFFC9C30600600600699CFFDF
:103BF000F639006006306CCC99C99CFFFFFF6690D7
:103C000006006006006006006006006669FFFFFFB0
:103C1000FFFFFFFFFFFFFFFFFFFFFFFFFFFFFFFFB4
:103C2000FFFFFFFFFFFFFFFFFFFFFFFFFFFFFFFFA4
:103C3000FFFFFFFFFFFFFFFFFFFFFFFFFFFFFFFF94
:103C4000FFFFFFFFFFFFFFFFFFFFFFFFFFFFFFFF84
:103C5000FFFFFFFFFFFFFFFFFFFFFFFFFFFFFFFF74
:103C6000FFFFFFFFFFFFFFFFFFFFFFFFFFFFFFFF64
:103C7000FFF669006006006006006006006006004E
:103C80006006639FFFFFF00600699C00600600600D
:103C900006006006FFFFFF639FFFFFF669006006F6
:103CA00000600699CCCC00600666999CFFFCCF00B2
:103CB0006006006FFFCCF006006006006006006042
:103CC00006FFFFFF669FFF006006006006006006BB
:103CD000006006006336FFFFFFFFFFFFFFFFFFFFEF
:103CE000FFFFFFFFFFFFFFFFFFFFFFFFFFFFFFFFE4
:103CF000FFFFFFFFFFFFFFFFFFFFFFFFFFFFFFFFD4
:103D0000FFFFFFFFFFFFFFFFFFFFFFFFFFFFFFFFC3
:103D1000FFFFFFFFFFFFFFFFFFFFFFFFFFFFFFFFB3
:103D2000FFFFFFFFFFFFFFFFFFFFFFFFFFFFFFFFA3
:103D3000FFFFFFFFFFFF99C006006006006006005E
:103D4000630699C669006006006FFFFFF306306CDA
:103D5000CF006006006006006006CCCFFF33699C90
:103D6000FFFFFF669006006006669FFF006006008A
:103D70006006FFFCCC006006639FFFC9C0060060C0
:103D800006006006006669FFF99C00699C006006F9
:103D9000006006006006006006006006639CCFFFBE
:103DA000FFFFFFFFFFFFFFFFFFFFFFFFFFFFFFFF23
:103DB000FFFFFFFFFFFFFFFFFFFFFFFFFFFFFFFF13
:103DC000FFFFFFFFFFFFFFFFFFFFFFFFFFFFFFFF03
:103DD000FFFFFFFFFFFFFFFFFFFFFFFFFFFFFFFFF3
:103DE000FFFFFFFFFFFFFFFFFFFFFFFFFFFFFFFFE3
:103DF000FFFFFFFFFFFFFFFFFF99C0060060060007
:103E00006006006006006CCCFFF0060060060066ED
:103E100069FFFCCF669FFF99C00699C00600600647
:103E200099CFFF99C006006FFFFFFFFF6690060065
:103E30006CCCFFFCCF99CCCFCCC00600600699CFEC
:103E4000FF639006006006006006306FFFFFF0061B
:103E5000006306006006006006FFFFFF3360060097
:103E60006006006006339CCCFFFFFFFFFFFFFFFFF3
:103E7000FFFFFFFFFFFFFFFFFFFFFFFFFFFFFFFF52
:103E8000FFFFFFFFFFFFFFFFFFFFFFFFFFFFFFFF42
:103E9000FFFFFFFFFFFFFFFFFFFFFFFFFFFFFFFF32
:103EA000FFFFFFFFFFFFFFFFFFFFFFFFFFFFFFFF22
:103EB000FFFFFFFFFFFFFFFFFFFFFFFFFFF33900E3
:103EC0006006006006006006339669006006CCC09C
:103ED00006006006006006FFFFFF00663966930675
:103EE000FFF006006336C9CFFFFFF33600699CC9B7
:103EF000C66933600600666963999CFFFCCC00606C
:103F000006006669FFFFFF66900600600600600617
:103F1000669FFF99C006006006006006006006FF0D
:103F2000FFFFFFF99C006006006006006006FFFFCF
:103F3000FFFFFFFFFFFFFFFFFFFFFFFFFFFFFFFF91
:103F4000FFFFFFFFFFFFFFFFFFFFFFFFFFFFFFFF81
:103F5000FFFFFFFFFFFFFFFFFFFFFFFFFFFFFFFF71
:103F6000FFFFFFFFFFFFFFFFFFFFFFFFFFFFFFFF61
:103F7000FFFFFFFFFFFFFFFFFFFFFFFFFFFFFFFF51
:103F8000F66900600600600600630699CFFFFFF344
:103F900006006006669006006006006006669FFFE9
:103FA00099C006306FFFFFF0060060060060060053
:103FB00060060060060060060060060060060060A3
:103FC000060060060060060060060060066696391E
:103FD000006006006006FFFFFF006006006006004C
:103FE0006006006006FFFFFF006006FFFCCF006078
:103FF00006006006006306FFFFFFFFFFFFFFFFFFF5
:10400000FFFFFFFFFFFFFFFFFFFFFFFFFFFFFFFFC0
:10401000FFFFFFFFFFFFFFFFFFFFFFFFFFFFFFFFB0
:10402000FFFFFFFFFFFFFFFFFFFFFFFFFFFFFFFFA0
:10403000FFFFFFFFFFFFFFFFFFFFFFFFFFFFFFFF90
:10404000FFFFFFFFFFCCC0060060060060060063B4
:1040500006CCCFFFFFFCCC306006639639006006CB
:10406000006006306FFFFFFC9CFFFC9C6690060022
:1040700060060060060060060060060060060060E2
:10408000060060060060060060060060060060062C
:10409000006006006006006006669FFFFFFFFF00ED
:1040A0006006006006006006006006FFFFFF00601B
:1040B00006C9CFFFCCC33900600600600699CFFF68
:1040C000FFFFFFFFFFFFFFFFFFFFFFFFFFFFFFFF00
:1040D000FFFFFFFFFFFFFFFFFFFFFFFFFFFFFFFFF0
:1040E000FFFFFFFFFFFFFFFFFFFFFFFFFFFFFFFFE0
:1040F000FFFFFFFFFFFFFFFFFFFFFFFFFFFFFFFFD0
:10410000FFFFFFFFFFFFFFFFFFF0060060060060FC
:1041100006006006006006006006306FFFFFF3399E
:1041200000699C006006006006CCCC9C669006008E
:104130006006006006006006006006006006006021
:10414000060060060060060060060060060060066B
:104150000060060060060060060060060060060061
:10416000600630666999C00600600600600600605F
:1041700006CCCFFFCCCFFF63900600600600600640
:10418000006006006006CCFFFFFFFFFFFFFFFFFFA0
:10419000FFFFFFFFFFFFFFFFFFFFFFFFFFFFFFFF2F
:1041A000FFFFFFFFFFFFFFFFFFFFFFFFFFFFFFFF1F
:1041B000FFFFFFFFFFFFFFFFFFFFFFFFFFFFFFFF0F
:1041C000FFFFFFFFFFFFFFFFFFFFFFFFFFFF669007
:1041D0000600600600600633699C00600600600609
:1041E00000699CFFFFFF66999C0060060060063333
:1041F0009006006006006006006006006006006031
:1042000006006336666999999999CC9CC9CC9CC97A
:10421000CC9CC999999966663600600600600600D4
:104220006006006006006006006006006006006030
:1042300006006006006006FFFFFFCCF6690060061E
:10424000006006006006006006006006306CCCFF6F
:10425000FFFFFFFFFFFFFFFFFFFFFFFFFFFFFFFF6E
:10426000FFFFFFFFFFFFFFFFFFFFFFFFFFFFFFFF5E
:10427000FFFFFFFFFFFFFFFFFFFFFFFFFFFFFFFF4E
:10428000FFFFFFFFFFFFFFFFFFFFFFFFFFFFFFFF3E
:10429000FF339006006006006006006FFFFFF336F4
:1042A000006006006006006006006FFFFFFFFF0071
:1042B000600600600600600600600600600600669A
:1042C00066999CC9CC9CC9CC9CC9CC9CC9CC9CC9C6
:1042D000CC9CC9CC9CC9CC9CC9CC9CC9CC9CC9CC1D
:1042E0009CC9CC9CC9999669006006006006006074
:1042F00006006006006006006006669669FFFFFF24
:1043000000600600600600600600600600600600AF
:104310006006006006006FFFFFFFFFFFFFFFFFFF6B
:10432000FFFFFFFFFFFFFFFFFFFFFFFFFFFFFFFF9D
:10433000FFFFFFFFFFFFFFFFFFFFFFFFFFFFFFFF8D
:10434000FFFFFFFFFFFFFFFFFFFFFFFFFFFFFFFF7D
:10435000FFFFFFFFFFFFFF00600600600600600632
:10436000669FFFFFFCCC3060060060060060060020
:104370006339FFFCCC006006006006006006006048
:1043800006006669CC9CC9CC9CC9CC9CC9CC9CC994
:104390009993363363363363363363363363363358
:1043A0006336666CC9CC9CC9CC9CC9CC9CC9CC99E1
:1043B0009930600600600600600600600600600636
:1043C000FFFFFFFFF99C006006006006006006002A
:1043D000600600600600600600600600699CFFFF42
:1043E000FFFFFFFFFFFFFFFFFFFFFFFFFFFFFFFFDD
:1043F000FFFFFFFFFFFFFFFFFFFFFFFFFFFFFFFFCD
:10440000FFFFFFFFFFFFFFFFFFFFFFFFFFFFFFFFBC
:10441000FFFFFFFFFFFFFFFFFFFF306006006006AA
:10442000006006006006006006339FFFFFF0060094
:10443000600600600600600600600600600600601E
:1044400006006666999CC9CC9CC9CC9CC9CC9CC909
:10445000CC9CC9CC9CC999900600600600600600FF
:104460006006006006006006336CC9CC9CC9CC9C19
:10447000C9CC9CC9CC9CC9CC9CC9CC9669006006AF
:1044800000600600600600600699CFFF006006002D
:1044900060060060060060060060060060060060BE
:1044A00006006006006FFFFFFFFFFFFFFFFFFFFF3B
:1044B000FFFFFFFFFFFFFFFFFFFFFFFFFFFFFFFF0C
:1044C000FFFFFFFFFFFFFFFFFFFFFFFFFFFFFFFFFC
:1044D000FFFFFFFFFFFFFFFFFFFFFFFFFFFFFFFFEC
:1044E0000060060060060066693390060060060002
:1044F0006FFFFFF339006006006006006006006091
:1045000006006006006306666CC9CC9CC9CC9CC9D9
:10451000CC9CC9CC9CC9CC9CC9CC9CC9999339CCA6
:10452000C00600699CCCCCCC006006CCCCCC336CF3
:10453000C9CC9CC9CC9CC9CC9CC9CC9CC9CC9CC9BD
:10454000CC9CC999933600600600600600600600A6
:1045500063390060060060060060060060060060C7
:104560000600600600600600600600699CFFFFFF11
:10457000FFFFFFFFFFFFFFFFFFFFFFFFFFFFFFFF4B
:10458000FFFFFFFFFFFFFFFFFFFFFFFFFFFFFFFF3B
:10459000FFFFFFFFFFFFFFFFFFFFFFFFFFFFFFFF2B
:1045A000FFFFFF339006006006006006669FFF3342
:1045B0006006006006006006CCCFFFCCCC9C30606B
:1045C00006006006006006006666CC9CC9CC9CC9EB
:1045D000CC9CC966600600600600600600600600AC
:1045E0006006006006CCFFFFFFFFFFFFFFFFFFFF3D
:1045F000FFFFF99C00600600600600600600600690
:10460000006006006999CC9CC9CC9CC9CC999900E2
:10461000600600600600600600600600600600603C
:104620000600600600600633666966930600600651
:10463000006006006FFFFFFFFFFFFFFFFFFFFFFFB0
:10464000FFFFFFFFFFFFFFFFFFFFFFFFFFFFFFFF7A
:10465000FFFFFFFFFFFFFFFFFFFFFFFFFFFFFFFF6A
:10466000FFFFFFFFFFFFFFFFFF0060060060060087
:104670006306FFFCCFCCC006006006006006306F0A
:10468000FFFFF99C006006006006006006666CC9CA
:10469000CC9CC9CC9CC9CC9CC96660060060060055
:1046A0006006006006006006006006999FFFFFFF3D
:1046B000FFFFFFFFFFFFFFFFF63900600600600607
:1046C000006006006006006006006999CC9CC9CCB9
:1046D0009CC9CC9CC99993360060060060060060B6
:1046E00006006006006006006006006306FFFFFF2C
:1046F000FFFFFF99C006006006006C9CFFFFFFFFF4
:10470000FFFFFFFFFFFFFFFFFFFFFFFFFFFFFFFFB9
:10471000FFFFFFFFFFFFFFFFFFFFFFFFFFFFFFFFA9
:10472000FFFFFFFFFFFFFFFFFFFFFFFFFFF6690037
:104730006006006006006006306306CCC3060060B9
:1047400006006006006FFFFFF006006006006006CE
:10475000006CC9CC9CC9CC9CC9CC9CC9CC9CC966FA
:1047600060066693360066399990060069999990BB
:1047700006306FFFFFFFFFFFFFFFFFFFFF99C0063F
:10478000306999006006669999006006999639002B
:104790006CC9CC9CC9CC9CC9CC9CC9CC9CC9306090
:1047A0000600600600600600600600600600600605
:1047B000339FFFFFFFFFCCCCCCFFF3060060060069
:1047C0006306CCCFFFFFFFFFFFFFFFFFFFFFFFFFF1
:1047D000FFFFFFFFFFFFFFFFFFFFFFFFFFFFFFFFE9
:1047E000FFFFFFFFFFFFFFFFFFFFFFFFFFFFFFFFD9
:1047F000FFFF006006006006006339FFFFFFFFF661
:1048000069339CCCFFF0060060060063060060067A
:10481000006006006CC9CC9CC9CC9CC9CC9CC9CC9E
:104820009CC9CC9CC9999006999FFFFFFFFFFFFF91
:10483000FFFFFFFFCCC006006669FFFFFFFFFFFF21
:10484000FFFFFF006006006FFFFFFFFFFFFFFFFF9E
:10485000FFFFFFF669336CC9CC9CC9CC9CC9CC9CCA
:10486000C9CC9CC9CC9CC9306006006006006006BB
:10487000006006006006FFFFFF669006006006000D
:104880006FFF639006006006006FFFFFFFFFFFFFF2
:10489000FFFFFFFFFFFFFFFFFFFFFFFFFFFFFFFF28
:1048A000FFFFFFFFFFFFFFFFFFFFFFFFFFFFFFFF18
:1048B000FFFFFFFFFFFFFCCC006006006006339F98
:1048C000FFFFFFFFFFFFFFFFFCCCFFF33900600697
:1048D000006006006006006306999CC9CC9CC9CCA8
:1048E0009CC9CC9CC9CC9CC9CC9CC9CC9006669F69
:1048F000FFFFFFFFFFFFFFFFFFFF99C00600699961
:10490000FFFFFFFFFFFFFFFFFF006006006CCCFF13
:10491000FFFFFFFFFFFFFFFFFFF639636CC9CC9C71
:10492000C9CC9CC9CC9CC9CC9CC9CC9CC9CC963662
:10493000006006006006006006006006FFFFFF00E2
:104940006006006006006FFFC9C0060060060066D2
:1049500069FFFFFFFFFFFFFFFFFFFFFFFFFFFFFFFD
:10496000FFFFFFFFFFFFFFFFFFFFFFFFFFFFFFFF57
:10497000FFFFFFFFFFFFFFFFFFFFFF6690060060E6
:104980000600600699C639CCF339006669C9CFFFC5
:10499000FFFFFFCCF006006006006006666CC9CC25
:1049A0009CC9CC9CC9CC9CC9CC9CC9CC9CC9CC9C76
:1049B000C9CC9006006FFFFFFFFFFFFFFFFFF99CD0
:1049C000006006006999FFFFFFFFFFFFFFFFFF0088
:1049D0006006006006FFFFFFFFFFFFFFFFFF339051
:1049E00006CC9CC9CC9CC9CC9CC9CC9CC9CC9CC9CC
:1049F000CC9CC9CC9CC99993360060060060060027
:104A00006006FFF99C006006006006006FFFFFF083
:104A100006006006006006006FFFFFFFFFFFFFFF5C
:104A2000FFFFFFFFFFFFFFFFFFFFFFFFFFFFFFFF96
:104A3000FFFFFFFFFFFFFFFFFFFFFFFFFFFFFFFF86
:104A4000FF006006006006006006006006CCCFFF35
:104A5000339006006336669CCC33900600600600F7
:104A60006999CC9CC9CC9CC9CC9CC9CC9CC9CC9C18
:104A7000C9CC9CC9CC9CC9CC9669006C9CFFFFFF3B
:104A8000FFFFFFFFF006006006006999FFFFFFFFD0
:104A9000FFFFFFFFFF006006006006FFFFFFFFFF54
:104AA000FFFFFFFF006006CC9CC9CC9CC9CC9CC911
:104AB000CC9CC9CC9CC9CC9CC9CC9CC9CC9CC90001
:104AC0006006006006006006FFF669006006006090
:104AD0000699CFFFCCC006006006006006006FFF9D
:104AE000FFFFFFFFFFFFFFFFFFFFFFFFFFFFFFFFD6
:104AF000FFFFFFFFFFFFFFFFFFFFFFFFFFFFFFFFC6
:104B0000FFFFFFFFFFF3390060060060060060064C
:104B100000600600600699C3390060060060060068
:104B20006006006336CC9CC9CC9CC9CC9CC9CC9C8B
:104B3000C9CC9CC9CC9CC9CC9CC9CC9CC9CC963650
:104B4000006FFFFFFFFFFFFFFFFFF006CCC0060076
:104B50006FFF006639FFFFFF006639CCC0069999E8
:104B60009CFFFFFFFFFFFFFFFFFF006006CC9CC91B
:104B7000CC9CC9CC9CC9CC9CC9CC9CC9CC9CC9CC74
:104B80009CC9CC9CC9CC9999006006006006669FC0
:104B9000FF339306CCCFFFFFFCCC0060060060061D
:104BA00000600600600699CFFFFFFFFFFFFFFFFFD9
:104BB000FFFFFFFFFFFFFFFFFFFFFFFFFFFFFFFF05
:104BC000FFFFFFFFFFFFFFFFFFFF6690060060068D
:104BD000006669006006006006006006006FFF6600
:104BE0009669006006006006006CC9CC9CC9CC9C2C
:104BF000C9CC9CC9CC9CC9CC9CC9CC9CC9CC9CC9F7
:104C0000CC9CC9CC9336006FFFFFFFFFFFFFFFFF77
:104C1000F006FFF999999FFF99999CFFFFFF9999D9
:104C20009CCCF999CCCCCCCCCFFFFFFFFFFFFFFF92
:104C3000006006CC9CC9CC9CC9CC9CC9CC9CC9CC7E
:104C40009CC9CC9CC9CC9CC9CC9CC9CC9CC90060DB
:104C500006006006006669FFFFFFFFFFFFFFF30627
:104C6000006006006006639006006006306FFFFF7C
:104C7000FFFFFFFFFFFFFFFFFFFFFFFFFFFFFFFF44
:104C8000FFFFFFFFFFFFFFFFFFFFFFFFFFFFFFFF34
:104C9000006006006006C9CFFF669006006006004F
:104CA000600600699CFFF006006006006666CC9C0A
:104CB000C9CC9CC9CC9CC9CC9CC9CC9CC9CC9CC936
:104CC000CC9CC9CC9CC9CC9CC9CC9006006FFFFF82
:104CD000FFFFFFFFFFFFF00699CFFFFFFFFFFFFF82
:104CE000FFFFFFFFFFFFFFFFFFFFFFF669CCCFFFD6
:104CF000FFFFFFFFFFFF639006999CC9CC9CC9CCC6
:104D00009CC9CC9CC9CC9CC9CC9CC9CC9CC9CC9C12
:104D1000C9CC9CC9CC999900600600600600600669
:104D2000006006006006006006006669FFF006008D
:104D3000600600699CFFFFFFFFFFFFFFFFFFFFFF13
:104D4000FFFFFFFFFFFFFFFFFFFFFFFFFFFFFFFF73
:104D5000FFFFFFFFF99C006006006006FFF99CFF63
:104D6000FCCC006006006006006CCC66900600601B
:104D700006006CC9CC9CC9CC9CC9CC9CC9CC9CC934
:104D8000CC9CC9CC9CC9CC9CC9CC9CC9CC9CC966C8
:104D90009006339FFFFFFFFFFFFFFFFFF339306FE8
:104DA000FFFFFFFFFFFFFFFFFFFFFFFFFFFFFFFF13
:104DB000CCC006FFFFFFFFFFFFFFFFFFCCC30630A5
:104DC0006CC9CC9CC9CC9CC9CC9CC9CC9CC9CC9C82
:104DD000C9CC9CC9CC9CC9CC9CC9CC9CC9306006B0
:104DE00000600600600600600600600600600600C5
:104DF0006FFFFFF669006006006306FFFFFFFFFF1D
:104E0000FFFFFFFFFFFFFFFFFFFFFFFFFFFFFFFFB2
:104E1000FFFFFFFFFFFFFFFFFF639006006006003C
:104E20006669006006006006FFFCCF006006006057
:104E300006006006006336CC9CC9CC9CC9CC9CC9DA
:104E4000CC9CC9CC9CC9CC9CC9CC9CC9CC9CC9CCA1
:104E50009CC9CC9669006639FFFFFFFFFFFFFFFF8B
:104E6000FFFFFFFF639FFFFFFFFFFFF006006006ED
:104E7000669FFFFFFFFF006669FFFFFFFFFFFFFF69
:104E8000FFFFFFFFFF006006CC9CC9CC9CC9CC9CF7
:104E9000C9CC9CC9CC9CC9CC9CC9CC9CC9CC9CC954
:104EA000CC9CC9CC999900600600600600600600A1
:104EB0006006006FFFFFFFFFC9CCCFC9C0060060CE
:104EC00006006FFFFFFFFFFFFFFFFFFFFFFFFFFF7A
:104ED000FFFFFFFFFFFFFFFFFFFFFFFFFFFFFF00E1
:104EE0006006006006339FFF006006006006336CBA
:104EF000CC669006006006006006006CC9CC9CC9B8
:104F0000CC9CC9CC9CC9CC9CC9CC9CC9CC9CC9CCE0
:104F10009CC9CC9CC9CC9CC9CC9666006669FFFF35
:104F2000FFFFFFFFFFFFFFFFFFFF639FFFFFFFFF8D
:104F3000CCC006006006306FFFFFFFFF006999FFDD
:104F4000FFFFFFFFFFFFFFFFFFFFFF006006CC9C9E
:104F5000C9CC9CC9CC9CC9CC9CC9CC9CC9CC9CC993
:104F6000CC9CC9CC9CC9CC9CC9CC9CC90060060017
:104F70006006006306669339CCCFFFFFF639006602
:104F800039FFF006006006006FFFFFFFFFFFFFFF25
:104F9000FFFFFFFFFFFFFFFFFFFFFFFFFFFFFFFF21
:104FA000FFFFFFF99C006006006006FFFFFFCCC317
:104FB00036006006006006FFF0060060060060062E
:104FC000999CC9CC9CC9CC9CC9CC9CC9CC9CC9CC53
:104FD0009CC9CC9CC9CC9CC9CC9CC9CC9CC9CC9646
:104FE00066006999FFFFFFFFFFFFFFFFFFFFFFFF65
:104FF000999FFFFFFFFFCCC006006006006FFFFF18
:10500000FFFF006CCCFFFFFFFFFFFFFFFFFFFFFF75
:10501000FF006006CC9CC9CC9CC9CC9CC9CC9CC967
:10502000CC9CC9CC9CC9CC9CC9CC9CC9CC9CC9CCBF
:105030009CC9CC9336006006006006669FFFFFF6B1
:1050400039006FFFCCC306CCC99C00600600630624
:10505000FFFFFFFFFFFFFFFFFFFFFFFFFFFFFFFF60
:10506000FFFFFFFFFFFFFFFFFFF306006006006387
:1050700036FFFFFFFFFFFF006006006006CCC006A2
:10508000006006006666CC9CC9CC9CC9CC9CC9CC8F
:105090009CC9CC9CC9CC9CC9CC9CC9CC9CC9CC9C7F
:1050A000C9CC9CC9CC9666006999FFFFFFFFFFFF42
:1050B000FFFFFFFFFFFF999CCFFFFFFFCCC0060063
:1050C0006006006FFFFFFFFF006CCCFFFFFFFFFFDC
:1050D000FFFFFFFFFFFFFF006006CC9CC9CC9CC90F
:1050E000CC9CC9CC9CC9CC9CC9CC9CC9CC9CC9CCFF
:1050F0009CC9CC9CC9CC9CC9CC9CC90060060060F2
:1051000006006FFFC9C006006FFFCCF006CCC66971
:1051100000600600600699CFFFFFFFFFFFFFFFFF63
:10512000FFFFFFFFFFFFFFFFFFFFFFFFFFFF3060FD
:105130000600600600600600600699CFFFFFFFFFD3
:10514000CCCFFF006006006006306CC9CC9CC9CC97
:105150009CC9CC9CC9CC99999999999999999999F3
:1051600099999999999999999999999666006669E1
:10517000CCCCCCCCCCCCCCCCCCCCCCCC66999CCC38
:10518000CCCC99C006006006006CCCCCCCCC0069BD
:105190009CCCCCCCCCCCCCCCCCCCCCCCCC0060067D
:1051A000999999999999999999999999999999996F
:1051B0009999999999999CC9CC9CC9CC9CC9CC9C2A
:1051C000C966900600600600666999C0066690068A
:1051D000006006C9C006006006006006006FFFFFA1
:1051E000FFFFFFFFFFFFFFFFFFFFFFFFFFFFFFFFCF
:1051F000FFFFFFFF0060060060060060060060061B
:10520000006639FFFFFFFFFFFF00600600600699A0
:105210009CC9CC9CC9CC9CC9CC9CC966600600606A
:10522000060060060060060060060060060060067A
:105230000060060060060060060060060060060070
:105240006006006006006006006006006006006000
:10525000060060060060060060060060060060064A
:105260000060060060060060060060060060060040
:105270006006006006006006006006006999CC9C2C
:10528000C9CC9CC9CC9CC9CC933600600600600692
:105290000060060060060060060060060060060010
:1052A0006006006FFFFFFFFFFFFFFFFFFFFFFFFF35
:1052B000FFFFFFFFFFFFFFFFF99C00600600600695
:1052C00000600600600600600600600600600600E0
:1052D0006006006CC9CC9CC9CC9CC9CC9CC9CC9C38
:1052E000C966600600600600600600600600600691
:1052F00000600600600600600600600600600600B0
:10530000600600600600600600600600600600603F
:105310000600600600600600600600600600600689
:10532000006006006006006006006006006006007F
:10533000600600600600600600600600600600600F
:1053400006006999CC9CC9CC9CC9CC9CC9CC9CC991
:10535000006006006006006006006006006006004F
:105360006006006006006006006306FFFFFFFFFFA7
:10537000FFFFFFFFFFFFFFFFFFFFFFFFFFFFF33612
:10538000006006006006006006006006006006001F
:105390006006006006006006006CC9CC9CC9CC9C0D
:1053A000C9CC9CC9CC9CC96660060060060060063A
:1053B00000600600600600600600600600600600EF
:1053C000600600600600600600600600600600607F
:1053D00006006006006006006006006006006006C9
:1053E00000600600600600600600600600600600BF
:1053F000600600600600600600600600600600604F
:1054000006006006006006006999CC9CC9CC9CC966
:10541000CC9CC9CC9CC933600600600600600600C5
:10542000600600600600600600600600600600601E
:105430000699CFFFFFFFFFFFFFFFFFFFFFFFFFFF0B
:10544000FFFFFF6390060060060060060060060034
:105450006006006006006006006006006306CC9CE3
:10546000C9CC9CC9CC9CC9CC9CC9CC9CC9666006E3
:10547000006006FFFFFFFFFFFFFFFFFFFFFFFFFFD3
:10548000FFFFFFFFFFFFFFFFFFFFFFFFFFFFFFFF2C
:10549000FFFFFFFFFFFFFFFFFFFFFFFFFFFFFFFF1C
:1054A000FFFFFFFFFFFFFFFFFFFFFFFFFFFFFFFF0C
:1054B000FFFFFFFFFFFFFFFFFFFFFFFFFFFFFFFFFC
:1054C000FFFFFFFFFFFFFFFFFFFF0060060069997E
:1054D000CC9CC9CC9CC9CC9CC9CC9CC9CC96660040
:1054E000600600600600600600600600600600605E
:1054F00006006006006006006FFFFFFFFFFFFFFF72
:10550000FFFFFFFFFFFFFFFFFF00600600600600D8
:10551000600600600600600600600600600600602D
:1055200006006666CC9CC9CC9CC9CC9CC9CC9CC9E5
:10553000CC9CC9666006006006FFFFFFCCFCCFFF75
:10554000FFFFFFFFFFFFF999FFFFFFFFFFFFFFF9DD
:1055500099CCCFFFFFFFFFFFFCCC999FFFFFFFFF20
:10556000FFFFFF99C99CFFFFFFFFFFFFCCF999FFE9
:10557000FFFFFFFFFFFFF99CFFFFFFFFFFFFFFFFA4
:10558000FFCCCFFFFFFFFFFFFFFF999FFFFFFFFF54
:10559000006006006999CC9CC9CC9CC9CC9CC9CC44
:1055A0009CC9CC9CC93360060060060060060060A0
:1055B00006006006006006006006006006006FFFDF
:1055C000FFFFFFFFFFFFFFFFFFFFFFFFFFFFFF00EA
:1055D000600600600600600600600600600600606D
:1055E00006006006006006999CC9CC9CC9CC9CC989
:1055F000CC9CC9CC9CC9CC9CC9666006006006FFE7
:10560000FFFFCCCCCCFFFFFFFFFFFFFFF006FFFF4B
:10561000FFFFFFFFFFF006999FFFFFFFFFFFF999D4
:10562000006FFFFFFFFFFFFFFF639639FFFFFFFFE4
:10563000FFFFCCC006FFFFFFFFFFFFFFF639FFFFB4
:10564000FFFFFFFFFFFFFF999FFFFFFFFFFFFFFF30
:10565000006FFFFFFFFF006006006999CC9CC9CC7A
:105660009CC9CC9CC9CC9CC9CC9CC9CC9006006080
:1056700006006006006006006306306006006006F3
:1056800000600600699CFFFFFFFFFFFFFFFFFFFFB9
:10569000FFFFFFF99C0060060060060060063069AD
:1056A00099006006006006006006006006CC9CC998
:1056B000CC9CC9CC9CC9CC9CC9CC9CC9CC9CC9668F
:1056C0006006006006FFFFFFCCCCCCFFFFFFFFFFB2
:1056D000FFFFF006FFFFFFFFFFFFFFF006999FFFB0
:1056E000FFFFFFFFF999006FFFFFFFFFFFFFFF6361
:1056F0009639FFFFFFFFFFFFCCC006FFFFFFFFFF54
:10570000FFFFF639FFFFFFFFFFFFFFFFFF999FFF3E
:10571000FFFFFFFFFFFF006FFFFFFFFF00600600BE
:105720006999CC9CC9CC9CC9CC9CC9CC9CC9CC9C4B
:10573000C9CC900600600600600600600600663670
:10574000999006006006006006006336FFFFFFFFC9
:10575000FFFFFFFFFFFFFFFFFFF006006006006096
:1057600006006006CC9CC90060060060060060066A
:10577000006336CC9CC9CC9CC9CC9CC9CC9CC9CC00
:105780009CC9CC9CC9666006006006FFFFFFCCCCBC
:10579000CCFFFFFFFFFFFFFFF006FFFFFFFFFFFF54
:1057A000FFF99999CFFFFFFFFFFFF999006FFFFF06
:1057B000FFFFFFFFFF639639FFFFFFFFFFFFCCC036
:1057C00006FFFFFFFFFFFFFFF999FFFFFFFFFFFF4E
:1057D000FFFFFF999FFFFFFFFFFFFFFF006FFFFF2E
:1057E000FFFF006006006999CC9CC9CC9CC9CC9C89
:1057F000C9CC9CC9CC9CC9CC9999006006006006B4
:10580000006006006999CC9666006006006006009C
:105810006006669FFFFFFFFFFFFFFFFFFFFF99C0CE
:1058200006006006006006006006CC9CC9006006A9
:10583000006006006006006999CC9CC9CC9CC9CC6C
:105840009CC9CC9CC9CC9CC9CC9CC9666006006034
:1058500006FFFFFFCCCCCCFFFFFFFFFFFFFFF006F2
:10586000FFFFFFFFF669669C9CFFFFFFFFFFFFFF46
:10587000F999006FFFFFFFFFFFFFFF639639FFFFFE
:10588000FFFFFFFFCCC006FFFFFFFFFFFFFFFFFF93
:1058900099966999CFFFFFFFFF999FFFFFFFFFFFD9
:1058A000FFFF006FFFFFFFFF006006006999CC9CBF
:1058B000C9CC9CC9CC9CC9CC9CC9CC9CC9CC9CC92A
:1058C000336006006006006006006666CC9CC93046
:1058D0006006006006006006336FFFFFFFFFFFFFFA
:1058E000FFFFFFFF006006006006006006006666BE
:1058F000CC9CC9006006006006006006666CC9CCDE
:105900009CC9CC9CC9CC9CC9CC9CC9CC9CC9CC9C06
:10591000C9666006006006FFFFFFCCCCCCFFFFFF2E
:10592000FFFFFFFFF306FFF00600600600600600C1
:10593000699CFFFFFFFFF999006FFFFFFFFFFFFF6B
:10594000FF639639FFFFFFFFFFFFCCC006FFFFFF9D
:10595000FFFFFF006006006006006006669FFF997B
:105960009FFFFFFFFFFFFFFF006FFFFFFFFF0060D4
:1059700006006999CC9CC9CC9CC9CC9CC9CC9CC95B
:10598000CC9CC9CC9CC9CC90060060060060060087
:105990006336CC9CC9666006006006006006006F36
:1059A000FFFFFFFFFFFFFFFFFFFF00600600600635
:1059B000006006006666CC999900600600600600EB
:1059C0006006CC9CC9CC9CC9CC9CC9CC9CC9CC9C45
:1059D000C9CC9CC9CC9CC9666006006006FFFFFF6D
:1059E000CCCCCCFFFFFFFFFFFFFFFC9C9990060093
:1059F0006006006006006006CCCFFFFFF999006FDB
:105A0000FFFFFFFFFFFFFF639639FFFFFFFFFFFF71
:105A1000CCC006FFFFFFFFF99C0060060060060097
:105A20006006006C9C999FFFFFFFFFFFFFFF006F68
:105A3000FFFFFFFF006006006999CC9CC9CC9CC9A0
:105A4000CC9CC9CC9CC9CC9CC9CC9CC9CC90060030
:105A50006006006006006006999CC9999006006087
:105A600006006006006FFFFFFFFFFFFFFFFFFFFF65
:105A7000006006006006CC966600666666600600FA
:105A80006006006006006006CC9CC9CC9CC9CC9C1A
:105A9000C9CC9CC9CC9CC9CC9CC9CC9CC9666006AD
:105AA000006006FFFFFFCCCCCCFFFFFFFFFFFFFF36
:105AB000F99C006006006006006006006006006F4A
:105AC000FFFFF999006FFFFFFFFFFFFFFF639639AC
