:020000040800F2
:1000000000C00120C52900080D04000819040008DB
:100010002104000829040008310400080000000041
:10002000000000000000000000000000390400088B
:100030004504000800000000510400085D040008A9
:10004000112A0008112A0008112A0008112A0008A4
:10005000112A0008112A000875040008112A000856
:10006000112A0008112A0008112A0008112A000884
:10007000112A0008112A0008112A0008112A000874
:10008000112A0008112A0008112A0008112A000864
:10009000112A0008112A0008112A0008112A000854
:1000A000112A0008112A0008112A0008112A000844
:1000B000112A0008112A0008112A0008112A000834
:1000C000112A0008112A0008112A0008112A000824
:1000D000112A0008112A0008112A0008112A000814
:1000E000112A0008112A000881040008112A0008BA
:1000F000112A0008112A0008112A0008112A0008F4
:10010000112A0008112A0008112A0008112A0008E3
:10011000112A0008112A0008112A0008112A0008D3
:10012000112A0008112A0008112A0008112A0008C3
:10013000112A0008112A0008112A0008112A0008B3
:10014000112A0008112A0008112A00088D0400084D
:10015000112A0008112A0008112A0008112A000893
:10016000112A0008112A0008112A0008112A000883
:10017000112A0008112A0008112A0008112A000873
:08018000112A0008112A0008F1
:1001880080B483B000AF03463960FB7197F907303C
:10019800002B0DDA0E49FB7903F00F03A3F10403DA
:1001A8003A68D2B24FEA0212D2B2CB181A760AE0F3
:1001B800084997F907303A68D2B24FEA0212D2B228
:1001C800CB1883F8002307F10C07BD4680BC7047A5
:1001D80000ED00E000E100E080B582B000AF78609B
:1001E8007A686FF07F439A4202D94FF0010316E014
:1001F8000D4B7A6822F07F4202F1FF325A604FF0CD
:10020800FF304FF00F01FFF7BBFF074B4FF0000225
:100218009A60054B4FF007021A604FF0000318462A
:1002280007F10807BD4680BD10E000E080B584B046
:1002380002AF2A4B4FF000021A60294801F026FD50
:1002480000F026F9264B5A68264BA3FB02134FEA07
:1002580053131846FFF7C0FF4FF008004FF0010195
:1002680001F02EFE4FF482533B604FF001033B71C7
:100278004FF00003BB714FF00103FB714FF0020315
:100288007B713B461848194601F020F9174B4FF48B
:1002980028421A8000F0E0FA4FF0640000F04AF8B3
:1002A8004FF0E00300934FF032004FF01E014FF083
:1002B8001E024FF0320300F0DBFD4FF0320000F079
:1002C80039F80A4B4AF6AA221A804FF0640000F067
:1002D80031F84FF47A6000F00BF8FAE730000020AC
:1002E800340000201F85EB51000C02400000002064
:1002F80080B485B000AF78604FF00003FB607B6886
:10030800FB600EE04FF47A73BB6003E0BB6803F157
:10031800FF33BB60BB68002BF8D1FB6803F1FF33E8
:10032800FB60FB68002BEDD107F11407BD4680BCCC
:10033800704700BF80B485B000AF7860074B1B687A
:10034800FB6000BF054B1A68FB68D21A7B689A42AB
:10035800F8D307F11407BD4680BC70472800002079
:1003680080B500AF0D4B1B68002B0BD00C4B1B68E6
:1003780003F101020A4B1A60084B1B6803F1FF32B4
:10038800064B1A60054B1B68002B05D100F00AF8D4
:10039800024B4FF00A021A6080BD00BF30000020F7
:1003A8002800002080B500AF134B1B889BB21A466B
:1003B800124B1B7802FA03F303F40043002B05D019
:1003C8000F484FF4825101F0BBF904E00C484FF498
:1003D800825101F0C3F9094B1B7803F10103DAB22A
:1003E800064B1A70054B1B78102B03D1034B4FF0AB
:1003F80000021A7080BD00BF000000202C00002001
:10040800000C024080B400AFBD4680BC704700BFFE
:1004180080B400AFFEE700BF80B400AFFEE700BFC6
:1004280080B400AFFEE700BF80B400AFFEE700BFB6
:1004380080B400AFBD4680BC704700BF80B400AF39
:10044800BD4680BC704700BF80B400AFBD4680BCCD
:10045800704700BF80B582B000AF4FF00003FB715A
:10046800FFF77EFF07F10807BD4680BD80B400AFE7
:10047800BD4680BC704700BF80B400AFBD4680BC9D
:10048800704700BF80B400AFBD4680BC704700BF56
:1004980080B500AF124B124A126842F001021A608E
:1004A8000F4B4FF000029A600D4A0D4B1B6823F06A
:1004B800847323F480331360094B0A4A5A60084B4B
:1004C800074A126822F480221A60054B4FF0000296
:1004D800DA6000F093F8044B4FF000629A6080BD38
:1004E800003802401030002400ED00E080B487B0EE
:1004F80000AF4FF000033B614FF000037B614FF00A
:100508000203FB604FF00003BB604FF002037B6007
:10051800354B9B6803F00C033B613B69042B07D008
:10052800082B09D0002B45D1304B314A1A6045E0E1
:100538002E4B304A1A6041E02B4B5B6803F4800372
:100548004FEA9353BB60284B5B6803F03F037B6023
:10055800BB68002B0ED0274A7B68B2FBF3F2224B14
:10056800596847F6C0730B404FEA931303FB02F335
:100578007B610DE01E4A7B68B2FBF3F21A4B5968A7
:1005880047F6C0730B404FEA931303FB02F37B61FA
:10059800154B5B6803F440334FEA134303F101033F
:1005A8004FEA4303FB607A69FB68B2FBF3F20F4B37
:1005B8001A6003E00D4B0E4A1A6000BF0A4B9B6895
:1005C80003F0F0034FEA13130B4AD35CDBB23B6131
:1005D800064B1A683B6922FA03F2044B1A6007F1CA
:1005E8001C07BD4680BC704700380240040000204C
:1005F8000024F40000127A000800002080B483B0C0
:1006080000AF4FF000037B604FF000033B60424BAC
:10061800414A126842F480321A603F4B1B6803F467
:1006280000333B607B6803F101037B603B68002B70
:1006380003D17B68B3F5A06FEFD1374B1B6803F488
:100648000033002B03D04FF001033B6002E04FF072
:1006580000033B603B68012B42D12F4B2E4A126CA2
:1006680042F080521A642D4B2C4A126842F48042A0
:100678001A60294B284A92689A60274B264A926842
:1006880042F400429A60244B234A926842F4A052F2
:100698009A60214B224A5A601F4B1F4A126842F047
:1006A80080721A6000BF1C4B1B6803F00073002B9C
:1006B800F9D01C4B40F205621A60174B164A926833
:1006C80022F003029A60144B134A926842F0020225
:1006D8009A6000BF104B9B6803F00C03082BF9D1FC
:1006E8000D4B0D4A926822F400029A600A4B0E4A9A
:1006F800C3F88420084B084A126842F080621A60E6
:1007080000BF054B1B6803F00063002BF9D007F10D
:100718000C07BD4680BC704700380240007000409E
:1007280019544007003C02400030005080B582B0A8
:1007380000AF4FF002004FF0010101F0C1FB4FF490
:1007480000633B604FF001033B714FF00003BB7146
:100758004FF00103FB714FF002037B713B460E48DB
:10076800194600F0B3FE4FF430433B604FF00103ED
:100778003B714FF00003BB714FF00103FB714FF069
:1007880002037B713B460448194600F09FFE07F1BF
:100798000807BD4680BD00BF0004024080B584B094
:1007A80000AF02460B46FA71BB712A484FF400515C
:1007B80000F0D4FF27484FF4805100F0CFFFFB79B9
:1007C800002B05D023484FF4004100F0C7FF04E098
:1007D80020484FF4004100F0B3FF1E484FF4005189
:1007E80000F0AEFF1B484FF4005100F0B7FF4FF088
:1007F8000003FB7320E0BB795BB2002B05DA1548D8
:100808004FF4004100F09CFF04E012484FF400410F
:1008180000F0A4FF0F484FF4005100F091FF0D487D
:100828004FF4005100F09AFFBB794FEA4303BB71C4
:10083800FB7B03F10103FB73FB7B072BDBD905482B
:100848004FF4805100F07CFF00BF07F11007BD4650
:1008580080BD00BF0004024080B582B002AFFFF740
:1008680065FF91484FF4006100F078FF4FF00500F4
:10087800FFF760FD8C484FF4006100F061FF4FF016
:100888000500FFF757FD4FF000004FF0CA01FFF7D2
:1008980085FF4FF001004FF00001FFF77FFF4FF099
:1008A80001004FF01F01FFF779FF4FF001004FF0F3
:1008B8000B01FFF773FF4FF000004FF0BB01FFF78C
:1008C8006DFF4FF001004FF00101FFF767FF4FF098
:1008D80000004FF0D101FFF761FF4FF000004FF02B
:1008E8009401FFF75BFF4FF000004FF08101FFF725
:1008F80055FF4FF001004FF05B01FFF74FFF4FF03E
:1009080001004FF00301FFF749FF4FF000004FF0DF
:100918008201FFF743FF4FF001004FF00101FFF79D
:100928003DFF4FF0010000F0C1F84FF000004FF01C
:10093800CE01FFF733FF4FF000004FF0CE01FFF775
:100948002DFF4FF001004FF00001FFF727FF4FF098
:1009580001004FF00201FFF721FF4FF001004FF0B7
:100968000401FFF71BFF4FF001004FF00601FFF7EE
:1009780015FF4FF001004FF00801FFF70FFF4FF090
:1009880001004FF00A01FFF709FF4FF001004FF097
:100998000C01FFF703FF4FF001004FF00F01FFF7C5
:1009A800FDFE4FF001004FF00001FFF7F7FE4FF09A
:1009B80001004FF00201FFF7F1FE4FF001004FF088
:1009C8000401FFF7EBFE4FF001004FF00601FFF7BF
:1009D800E5FE4FF001004FF00801FFF7DFFE4FF092
:1009E80001004FF00A01FFF7D9FE4FF001004FF068
:1009F8000C01FFF7D3FE4FF001004FF00F01FFF796
:100A0800CDFE4FF001004FF00001FFF7C7FE4FF099
:100A180001004FF00401FFF7C1FE4FF001004FF055
:100A28000901FFF7BBFE4FF001004FF00F01FFF780
:100A3800B5FE4FF000004FF02501FFF7AFFE4FF075
:100A480000004FF0A701FFF7A9FE4FF00003009345
:100A58004FF000004FF000014FF084024FF0840384
:100A680000F096F84FF00A00FFF764FC4FF0000022
:100A78004FF02001FFF792FE4FF001004FF00F01F9
:100A8800FFF78CFE4FF00A00FFF754FC4FF0000010
:100A98004FF02501FFF782FE4FF000004FF0AF0145
:100AA800FFF77CFEBD4680BD0004024080B582B0E1
:100AB80000AF0346FB714FF000004FF0BC01FFF799
:100AC8006DFE4FF001004FF00001FFF767FE4FF099
:100AD80001004FF00401FFF761FEFB794FF00100C0
:100AE8001946FFF75BFE07F10807BD4680BD00BF4A
:100AF80080B582B000AF02460B46FA71BB714FF069
:100B080000004FF07501FFF749FEBB794FF0010077
:100B18001946FFF743FE4FF001004FF08301FFF73E
:100B28003DFE4FF000004FF01501FFF737FEFB794F
:100B38004FF001001946FFF731FE4FF001004FF06A
:100B48008301FFF72BFE07F10807BD4680BD00BFF4
:100B580080B582B000AF13460246FA710A46BA71F0
:100B68007B71FA79BB7910461946FFF7C1FF4FF040
:100B780000004FF05C01FFF711FE7B794FF0010098
:100B88001946FFF70BFE07F10807BD4680BD00BFF9
:100B980080B584B000AFF871B9717A713B714FF0CC
:100BA8000003FB732AE0BA79FB7BD318DBB2FA792E
:100BB80010461946FFF79CFF4FF000004FF05C010C
:100BC800FFF7ECFD4FF00003BB7309E03B7E4FF0ED
:100BD80001001946FFF7E2FDBB7B03F10103BB737C
:100BE800BA7B7B799A42F1D34FF000004FF0250190
:100BF800FFF7D4FDFB7B03F10103FB73FA7B3B7921
:100C08009A42D0D307F11007BD4680BD90B587B092
:100C180000AFF871B9717A713B713A79BB79D31A1F
:100C280003F10103184601F0B6EC04467A79FB7922
:100C3800D31A03F10103184601F0ACEC0346204631
:100C4800194601F0E2ED0346BB60BB79184601F096
:100C58009EEC03467B61FB793B6141E0786901F0DA
:100C680084EE0346DBB2FB601CE03A79FB689A42EB
:100C780014DB3B69DAB2FB68DBB210461946FFF7B2
:100C880037FF4FF000004FF05C01FFF787FD97F842
:100C980028304FF001001946FFF780FDFB6803F18B
:100CA8000103FB607869B96801F092EB03461846C6
:100CB80001F05AEE0346DBB21A46FB689A42D4DAD0
:100CC8007869B96801F084EB03467B614FF0000056
:100CD8004FF02501FFF762FD3B6903F101033B611A
:100CE8007A793B699A42B9DA07F11C07BD4690BD8B
:100CF80090B587B000AFF871B9717A713B713A79E4
:100D0800BB79D31A03F10103184601F044EC0446F9
:100D1800FA797B79D31A03F10103184601F03AEC0A
:100D280003462046194601F070ED0346BB60BB79C7
:100D3800184601F02CEC03467B61FB793B6141E0EE
:100D4800786901F012EE0346DBB2FB601CE03A79E9
:100D5800FB689A4214DB3B69DAB2FB68DBB21046E7
:100D68001946FFF7C5FE4FF000004FF05C01FFF792
:100D780015FD97F828304FF001001946FFF70EFDD2
:100D8800FB6803F10103FB607869B96801F020EBA7
:100D98000346184601F0E8ED0346DBB21A46FB6845
:100DA8009A42D4DA7869B96801F012EB03467B619C
:100DB8004FF000004FF02501FFF7F0FC3B6903F10D
:100DC800FF333B617A793B699A42B9DD07F11C0729
:100DD800BD4690BD90B585B002AFF871B9717A7112
:100DE8003B71FA797B799A420CD8BA793B799A4265
:100DF80008D8F879B9797A793B793C7E0094FFF77D
:100E080005FF31E0FA797B799A420CD9BA793B79B6
:100E18009A4208D2F879B9797A793B793C7E00947C
:100E2800FFF766FF20E0FA797B799A420CD3BA790A
:100E38003B799A4208D378793979FA79BB793C7E3B
:100E48000094FFF7E3FE0FE0FA797B799A420BD220
:100E5800BA793B799A4207D978793979FA79BB799D
:100E68003C7E0094FFF744FF07F10C07BD4690BD98
:100E780080B584B000AFF871B9717A713B71FB79B4
:100E8800FB73BB79BB7313E0F97BBA793B7E0846E9
:100E980011461A46FFF75CFEF97B3A793B7E084615
:100EA80011461A46FFF754FEFB7B03F10103FB735F
:100EB800FA7B7B799A42E7D913E0F979BA7B3B7ED2
:100EC800084611461A46FFF743FE7979BA7B3B7EFE
:100ED800084611461A46FFF73BFEBB7B03F10103A8
:100EE800BB73BA7B3B799A42E7D907F11007BD4635
:100EF80080BD00BF80B584B000AF3A600246FA7189
:100F08000A46BA717B714FF00003FB603B68BB6017
:100F1800B0E0FB68DAB2FB79D318D9B2BB68DAB2B1
:100F2800BB79D318DAB27B79084611461A46FFF71F
:100F38000FFEFB68DBB2FA79D31AD9B2BB68DAB212
:100F4800BB79D318DAB27B79084611461A46FFF7FF
:100F5800FFFDFB68DAB2FB79D318D9B2BB68DBB204
:100F6800BA79D31ADAB27B79084611461A46FFF7DE
:100F7800EFFDFB68DBB2FA79D31AD9B2BB68DBB2F2
:100F8800BA79D31ADAB27B79084611461A46FFF7BE
:100F9800DFFDBB68DAB2FB79D318D9B2FB68DAB2E5
:100FA800BB79D318DAB27B79084611461A46FFF79F
:100FB800CFFDBB68DBB2FA79D31AD9B2FB68DAB2D3
:100FC800BB79D318DAB27B79084611461A46FFF77F
:100FD800BFFDBB68DAB2FB79D318D9B2FB68DBB2C4
:100FE800BA79D31ADAB27B79084611461A46FFF75E
:100FF800AFFDBB68DBB2FA79D31AD9B2FB68DBB2B2
:10100800BA79D31ADAB27B79084611461A46FFF73D
:101018009FFDFB6803F10103FB60FB68FA6802FBB4
:1010280003F2BB68B96801FB03F3D2183B6839685F
:1010380001FB03F3D31A83EAE372A2EBE372FB68C2
:10104800F96801FB03F1BB6803F1FF33B86800F1ED
:10105800FF3000FB03F3C9183B68386800FB03F353
:10106800CB1A002BB8BF5B429A4203DDBB6803F181
:10107800FF33BB60FA68BB689A427FF64AAF07F154
:101088001007BD4680BD00BF90B587B002AFF871AC
:10109800B9717A713B714FF00003FB6017E07A7900
:1010A8003B79D318DCB2F86801F070EAF979BA79BB
:1010B8007B79009097F820000190084611461A465F
:1010C800234600F00DF8FB6803F10103FB60FA68A2
:1010D80040F267139A42E2D907F11407BD4690BD62
:1010E80080B483B000AFF871B9717A713B7107F1C0
:1010F8000C07BD4680BC704780B58AB000AFF86069
:10110800B960FA71BB71BB68BB61BB691B78FB75C1
:10111800BB6903F10103BB61BB691B78BB75BB6984
:1011280003F10103BB61BB691B787B757A7D7B7D0D
:10113800F9680978A1F1200101FB03F3D318BA6813
:10114800D318BB614FF000037B623EE0FB7F63F086
:101158007F03FB77FB793B6228E07B6ADAB2BB79D5
:10116800D3183B75BB691A78FB7F1340DBB2002BA1
:101178000AD03B6AD9B23A7D97F830300846114612
:101188001A46FFF7E5FC09E03B6AD9B23A7D97F8C1
:101198003430084611461A46FFF7DAFCFB7F4FEA5F
:1011A8005303FB773B6A03F101033B62FA79FB7D4A
:1011B800D3181A463B6A9A42CFD8BB6903F1010398
:1011C800BB617B6A03F101037B62BA7D7B6A9A4249
:1011D800BCD8FA79FB7DD318FB71FB6803F10103D6
:1011E800FB604FF000004FF02501FFF7D7FAFB68CE
:1011F8001B78002B9AD107F12807BD4680BD00BF98
:1012080080B584B000AF0B463A600246FA71BB71F4
:101218004FF00200FFF74AFC3B681B784FEA530384
:101228007B733B6803F101033B603B681B783B73AE
:101238003B6803F101033B604FF00003BB733FE0E1
:10124800BA79BB7BD318DBB2FA7910461946FFF797
:101258004FFC4FF000004FF05C01FFF79FFA4FF092
:101268000003FB7324E03B681B784FF0010019462C
:10127800FFF794FA3B6803F101033B603B681B7876
:101288004FF001001946FFF789FA3B6803F10103A3
:101298003B603B681B784FF001001946FFF77EFA68
:1012A8003B6803F101033B60FB7B03F10103FB7324
:1012B800FA7B7B7B9A42D6D3BB7B03F10103BB73DA
:1012C800BA7B3B7B9A42BBD307F11007BD4680BD72
:1012D80080B584B000AF0B463A600246FA71BB7124
:1012E8003B681B787B733B6803F101033B603B68F9
:1012F8001B783B733B6803F101033B604FF000032D
:10130800BB7329E0BA79BB7BD318DBB2FA791046F4
:101318001946FFF7EDFB4FF000004FF05C01FFF7B7
:101328003DFA4FF00003FB730EE03B681B784FF06B
:1013380001001946FFF732FA3B6803F101033B60ED
:10134800FB7B03F10103FB73FA7B7B7B9A42ECD3B3
:10135800BB7B03F10103BB73BA7B3B7B9A42D1D3BE
:1013680007F11007BD4680BD80B582B000AF786038
:101378007A684D4B9A420CD14FF001004FF00101B1
:1013880000F03EFE4FF001004FF0000100F038FE83
:1013980086E07A68454B9A420CD14FF002004FF034
:1013A800010100F02DFE4FF002004FF0000100F0A7
:1013B80027FE75E07A683E4B9A420CD14FF0040044
:1013C8004FF0010100F01CFE4FF004004FF0000147
:1013D80000F016FE64E07A68364B9A420CD14FF062
:1013E80008004FF0010100F00BFE4FF008004FF02D
:1013F800000100F005FE53E07A682F4B9A420CD1A9
:101408004FF010004FF0010100F0FAFD4FF010000E
:101418004FF0000100F0F4FD42E07A68274B9A4251
:101428000CD14FF020004FF0010100F0E9FD4FF022
:1014380020004FF0000100F0E3FD31E07A68204B16
:101448009A420CD14FF040004FF0010100F0D8FD56
:101458004FF040004FF0000100F0D2FD20E07A6824
:10146800184B9A420CD14FF080004FF0010100F068
:10147800C7FD4FF080004FF0000100F0C1FD0FE004
:101488007A68114B9A420BD14FF480704FF00101EA
:1014980000F0B6FD4FF480704FF0000100F0B0FD91
:1014A80007F10807BD4680BD000002400004024065
:1014B80000080240000C02400010024000140240E4
:1014C80000180240001C02400020024080B487B08F
:1014D80000AF786039604FF000037B614FF0000384
:1014E8003B614FF00003FB604FF000037B6186E037
:1014F8007B694FF0010202FA03F33B613B681A680B
:101508003B691340FB60FA683B699A4273D17B6878
:101518001A687B694FEA43034FF0030101FA03F3AA
:101528006FEA03031A407B681A607B681A683B6895
:101538001B7919467B694FEA430301FA03F31A43FF
:101548007B681A603B681B79012B03D03B681B79C9
:10155800022B34D17B689A687B694FEA43034FF0CA
:10156800030101FA03F36FEA03031A407B689A60E8
:101578007B689A683B685B7919467B694FEA430345
:1015880001FA03F31A437B689A607B685A687B699F
:101598009BB24FF0010101FA03F36FEA03031A400B
:1015A8007B685A607B685A683B689B7919467B69F7
:1015B8009BB201FA03F39BB21A437B685A607B68BB
:1015C800DA687B699BB24FEA43034FF0030101FAE3
:1015D80003F36FEA03031A407B68DA607B68DA6812
:1015E8003B68DB7919467B694FEA430301FA03F349
:1015F8001A437B68DA607B6903F101037B617B69CD
:101608000F2B7FF675AF07F11C07BD4680BC7047EE
:1016180080B483B000AF78607B684FF6FF721A60C1
:101628007B684FF000021A717B684FF000025A7114
:101638007B684FF000029A717B684FF00002DA7104
:1016480007F10C07BD4680BC704700BF80B485B069
:1016580000AF78600B467B804FF48033FB607A885C
:10166800FB681343FB60FA687B68DA617A887B68F9
:10167800DA61FA687B68DA617B68DB69FB607B6842
:10168800DB69FB6007F11407BD4680BC704700BFEB
:1016980080B485B000AF78600B467B804FF00003C4
:1016A800FB737B681A697B881340002B03D04FF0CB
:1016B8000103FB7302E04FF00003FB73FB7B18464A
:1016C80007F11407BD4680BC704700BF80B483B0E3
:1016D80000AF78607B681B699BB2184607F10C075E
:1016E800BD4680BC704700BF80B485B000AF78604D
:1016F8000B467B804FF00003FB737B685A697B883D
:101708001340002B03D04FF00103FB7302E04FF0AE
:101718000003FB73FB7B184607F11407BD4680BC2A
:10172800704700BF80B483B000AF78607B685B69A6
:101738009BB2184607F10C07BD4680BC704700BF36
:1017480080B483B000AF78600B467B807B687A8872
:101758001A8307F10C07BD4680BC704780B483B07C
:1017680000AF78600B467B807B687A885A8307F1E4
:101778000C07BD4680BC704780B483B000AF78606A
:1017880013460A467A807B707B78002B03D07B68EF
:101798007A881A8302E07B687A885A8307F10C07F3
:1017A800BD4680BC704700BF80B483B000AF78608E
:1017B8000B467B807A887B685A6107F10C07BD4627
:1017C80080BC704780B483B000AF78600B467B80E4
:1017D8007B685A697B885A407B685A6107F10C0715
:1017E800BD4680BC704700BF80B485B000AF78604C
:1017F80013460A467A807B704FF00003FB604FF077
:101808000003BB607A787B8803F007034FEA830301
:1018180002FA03F3FB607B884FEAD3039BB21A46B4
:101828007B884FEAD3039BB219467B6801F1080114
:1018380053F821107B8803F007034FEA83034FF026
:101848000F0000FA03F36FEA030319407B6802F103
:10185800080243F822107B884FEAD3039BB21A464A
:101868007B6802F1080253F82220FB681343BB602F
:101878007B884FEAD3039BB21A467B6802F10802C1
:10188800B96843F8221007F11407BD4680BC7047B9
:1018980080B400AF104B104A126842F001021A607F
:1018A8000D4B4FF000029A600B4A0B4B1B6823F05C
:1018B800847323F480331360074B084A5A60064B3D
:1018C800054A126822F480221A60034B4FF0000286
:1018D800DA60BD4680BC70470038024010300024F2
:1018E80080B483B000AF0346FB71064B4FF0000293
:1018F8001A70044BFA791A7007F10C07BD4680BCC0
:10190800704700BF0238024080B582B000AF4FF088
:1019180000033B604FF00003FB714FF00003BB7105
:101928004FF0310000F0D2FC0346BB713B6803F175
:1019380001033B603B68B3F5A06F02D0BB79002B75
:10194800EED04FF0310000F0C1FC0346002B03D06D
:101958004FF00103FB7102E04FF00003FB71FB79CC
:10196800184607F10807BD4680BD00BF80B485B0A2
:1019780000AF0346FB714FF00003FB600A4B1B6886
:10198800FB60FB6823F0F803FB60FB794FEAC303B5
:10199800FA681343FB60044BFA681A6007F11407EE
:1019A800BD4680BC704700BF0038024080B483B099
:1019B80000AF0346FB71044BFA791A6007F10C0774
:1019C800BD4680BC704700BF0000474280B483B06A
:1019D80000AF0346FB710F4B4FF000021A700D4B1E
:1019E8004FF000021A70FB79012B02D0042B05D0AE
:1019F80009E0084B4FF001021A7005E0054B4FF063
:101A080005021A7000E000BF07F10C07BD4680BC54
:101A1800704700BF7038024080B483B000AF0346FF
:101A2800FB71044BFA791A6007F10C07BD4680BCBC
:101A3800704700BF800E474280B485B000AFF860A1
:101A4800B9607A603B600D4B7A684FEA8211BA68D8
:101A580011433A684FEA520202F1FF324FEA02425A
:101A68001143FA681143BA694FEA02620A435A609D
:101A780007F11407BD4680BC704700BF003802401C
:101A880080B483B000AF0346FB71044BFA791A6047
:101A980007F10C07BD4680BC704700BF6000474295
:101AA80080B483B000AF78603960074B7A684FEA3A
:101AB80082113A684FEA02720A43C3F8842007F198
:101AC8000C07BD4680BC70470038024080B483B024
:101AD80000AF0346FB71044BFA791A6007F10C0753
:101AE800BD4680BC704700BF6800474280B483B0E1
:101AF80000AF0346FB71044BFA791A6007F10C0733
:101B0800BD4680BC704700BF4C00474280B485B0DA
:101B180000AF786039604FF00003FB600A4B9B68A8
:101B2800FB60FB6823F0EC63FB607A683B68134357
:101B3800FA681343FB60044BFA689A6007F11407CC
:101B4800BD4680BC704700BF0038024080B485B0F5
:101B580000AF786039604FF00003FB600A4B9B6868
:101B6800FB60FB6823F07843FB607A683B681343AB
:101B7800FA681343FB60044BFA689A6007F114078C
:101B8800BD4680BC704700BF0038024080B485B0B5
:101B980000AF78604FF00003FB60094B9B68FB6067
:101BA800FB6823F00303FB60FA687B681343FB6060
:101BB800034BFA689A6007F11407BD4680BC70476A
:101BC8000038024080B400AF044B9B68DBB203F0DE
:101BD8000C03DBB21846BD4680BC70470038024093
:101BE80080B485B000AF78604FF00003FB60094B0C
:101BF8009B68FB60FB6823F0F003FB60FA687B6876
:101C08001343FB60034BFA689A6007F11407BD465B
:101C180080BC70470038024080B485B000AF78605F
:101C28004FF00003FB60094B9B68FB60FB6823F4E3
:101C3800E053FB60FA687B681343FB60034BFA6868
:101C48009A6007F11407BD4680BC7047003802400F
:101C580080B485B000AF78604FF00003FB600A4B9A
:101C68009B68FB60FB6823F46043FB607B684FEA7A
:101C7800C303FA681343FB60034BFA689A6007F1E1
:101C88001407BD4680BC70470038024080B489B054
:101C980000AF78604FF00003BB614FF000037B6139
:101CA8004FF00003FB614FF002033B614FF000036C
:101CB800FB604FF00203BB604E4B9B6803F00C03C4
:101CC800BB61BB69042B07D0082B09D0002B45D179
:101CD8007B68494A1A6045E07B68484A1A6041E0D7
:101CE800444B5B6803F480034FEA9353FB60414B1A
:101CF8005B6803F03F03BB60FB68002B0ED03F4AD4
:101D0800BB68B2FBF3F23B4B596847F6C0730B4014
:101D18004FEA931303FB02F3FB610DE0364ABB68FD
:101D2800B2FBF3F2334B596847F6C0730B404FEAE6
:101D3800931303FB02F3FB612E4B5B6803F4403300
:101D48004FEA134303F101034FEA43033B61FA6986
:101D58003B69B2FBF3F27B681A6003E07B68264AB2
:101D68001A6000BF234B9B6803F0F003BB61BB699B
:101D78004FEA1313BB61224ABB69D3181B78DBB245
:101D88007B617B681A687B6922FA03F27B685A6078
:101D9800184B9B6803F4E053BB61BB694FEA93237C
:101DA800BB61174ABB69D3181B78DBB27B617B68C0
:101DB8005A687B6922FA03F27B689A600D4B9B682C
:101DC80003F46043BB61BB694FEA5333BB610C4A00
:101DD800BB69D3181B78DBB27B617B685A687B6967
:101DE80022FA03F27B68DA6007F12407BD4680BC5B
:101DF800704700BF003802400024F40000127A0047
:101E08001800002080B485B000AF78604FF0000360
:101E1800FB607B6803F44073B3F5407F11D1104B2E
:101E28009B68FB60FB6823F4F813FB607B6823F076
:101E3800704323F44073FA681343FB60084BFA6855
:101E48009A60074A064B196F7B684FEA03534FEABB
:101E580013530B43136707F11407BD4680BC704743
:101E68000038024080B483B000AF0346FB71044BD6
:101E7800FA791A6007F10C07BD4680BC704700BFAD
:101E88003C0E474280B483B000AF0346FB71044B5D
:101E9800FA791A6007F10C07BD4680BC704700BF8D
:101EA800400E474280B483B000AF7860034B7A6835
:101EB8001A6007F10C07BD4680BC70475C014742B9
:101EC80080B483B000AF78600B46FB70FB78002BC2
:101ED80006D00A4B094A116B7A680A431A6307E06D
:101EE800064B064A116B7A686FEA02020A401A63C7
:101EF80007F10C07BD4680BC704700BF00380240A0
:101F080080B483B000AF78600B46FB70FB78002B81
:101F180006D00A4B094A516B7A680A435A6307E0AC
:101F2800064B064A516B7A686FEA02020A405A6306
:101F380007F10C07BD4680BC704700BF003802405F
:101F480080B483B000AF78600B46FB70FB78002B41
:101F580006D00A4B094A916B7A680A439A6307E0EC
:101F6800064B064A916B7A686FEA02020A409A6346
:101F780007F10C07BD4680BC704700BF003802401F
:101F880080B483B000AF78600B46FB70FB78002B01
:101F980006D00A4B094A116C7A680A431A6407E0AA
:101FA800064B064A116C7A686FEA02020A401A6404
:101FB80007F10C07BD4680BC704700BF00380240DF
:101FC80080B483B000AF78600B46FB70FB78002BC1
:101FD80006D00A4B094A516C7A680A435A6407E0EA
:101FE800064B064A516C7A686FEA02020A405A6444
:101FF80007F10C07BD4680BC704700BF003802409F
:1020080080B483B000AF78600B46FB70FB78002B80
:1020180006D00A4B094A11697A680A431A6107E02F
:10202800064B064A11697A686FEA02020A401A6189
:1020380007F10C07BD4680BC704700BF003802405E
:1020480080B483B000AF78600B46FB70FB78002B40
:1020580006D00A4B094A51697A680A435A6107E06F
:10206800064B064A51697A686FEA02020A405A61C9
:1020780007F10C07BD4680BC704700BF003802401E
:1020880080B483B000AF78600B46FB70FB78002B00
:1020980006D00A4B094A91697A680A439A6107E0AF
:1020A800064B064A91697A686FEA02020A409A6109
:1020B80007F10C07BD4680BC704700BF00380240DE
:1020C80080B483B000AF78600B46FB70FB78002BC0
:1020D80006D00A4B094A116A7A680A431A6207E06D
:1020E800064B064A116A7A686FEA02020A401A62C7
:1020F80007F10C07BD4680BC704700BF003802409E
:1021080080B483B000AF78600B46FB70FB78002B7F
:1021180006D00A4B094A516A7A680A435A6207E0AC
:10212800064B064A516A7A686FEA02020A405A6206
:1021380007F10C07BD4680BC704700BF003802405D
:1021480080B483B000AF78600B46FB70FB78002B3F
:1021580006D00A4B094A116D7A680A431A6507E0E6
:10216800064B064A116D7A686FEA02020A401A6540
:1021780007F10C07BD4680BC704700BF003802401D
:1021880080B483B000AF78600B46FB70FB78002BFF
:1021980006D00A4B094A516D7A680A435A6507E026
:1021A800064B064A516D7A686FEA02020A405A6580
:1021B80007F10C07BD4680BC704700BF00380240DD
:1021C80080B483B000AF78600B46FB70FB78002BBF
:1021D80006D00A4B094A916D7A680A439A6507E066
:1021E800064B064A916D7A686FEA02020A409A65C0
:1021F80007F10C07BD4680BC704700BF003802409D
:1022080080B483B000AF78600B46FB70FB78002B7E
:1022180006D00A4B094A116E7A680A431A6607E023
:10222800064B064A116E7A686FEA02020A401A667D
:1022380007F10C07BD4680BC704700BF003802405C
:1022480080B483B000AF78600B46FB70FB78002B3E
:1022580006D00A4B094A516E7A680A435A6607E063
:10226800064B064A516E7A686FEA02020A405A66BD
:1022780007F10C07BD4680BC704700BF003802401C
:1022880080B483B000AF02460B46FA71BB71BB79CC
:10229800002B08D00C4B0C4A1278D1B2FA790A43B9
:1022A800D2B21A700AE0084B074A1278D1B2FA790A
:1022B8006FEA0202D2B20A40D2B21A7007F10C07D2
:1022C800BD4680BC704700BF0D38024080B487B05F
:1022D80000AF0346FB714FF00003FB604FF00003B3
:1022E8007B614FF00003FB74FB794FEA5313DBB2B9
:1022F800FB60FB68012B03D1134B1B687B6109E072
:10230800FB68022B03D1104B1B6F7B6102E00E4B65
:102318005B6F7B61FB7903F01F03FB60FB687A69E5
:1023280022FA03F303F00103002B03D04FF001035B
:10233800FB7402E04FF00003FB74FB7C184607F1C6
:102348001C07BD4680BC70470038024080B400AF0F
:10235800044B044A526F42F080725A67BD4680BCF3
:10236800704700BF0038024080B485B000AF034614
:10237800FB714FF00003FB73094BDA68FB791340DC
:10238800002B03D04FF00103FB7302E04FF0000372
:10239800FB73FB7B184607F11407BD4680BC7047EA
:1023A8000038024080B483B000AF0346FB71044B91
:1023B800FA791A7007F10C07BD4680BC704700BF58
:1023C8000E380240020120E2000000EA021121E278
:1023D8008020B0E18130B0110300321142CCF011FD
:1023E80043CCF0114700000A222CA0E1233C72E004
:1023F800032082C0011020C0000021C0011020C0AD
:10240800003063B2190053E31EFF2F81020110E36D
:10241800020580E3FF04C0E300006012020111E33B
:10242800021581E3FF14C1E300106112030032E1D9
:102438002E00000A012042E2510390E0203063E2BE
:102448001113A0E1023100E20100005A001071E20C
:102458000000E0E2020550E30B00003A010450E3FB
:102468000400003AA000B0E16110A0E1012082E27E
:10247800FE0052E33800002A020151E3820BA0E07B
:102488000100C003030080E11EFF2FE18110B0E1CD
:102498000000A0E0020510E3012042E2F5FFFF1A68
:1024A80020C6B0E10006A0010C204202FF0810E39C
:1024B8000004A001082042020F0610E30002A00158
:1024C80004204202030510E30001A0010220420299
:1024D800020550E38000A0310020D2E2820B80A0E8
:1024E800002062B2030080A1300283B11EFF2FE1F9
:1024F800000032E3021521E20205200201208202D7
:1025080001304312CAFFFFEA8130A0E142CCF0E17A
:1025180043CCF0111300000A030032E10200000A64
:10252800000032E30100A0011EFF2FE1010030E1AD
:102538000000A0131EFF2F11FF0412E30200001A6F
:102548008000B0E1020180231EFF2FE1022492E205
:10255800020580321EFF2F31023100E27F0483E33F
:10256800020580E31EFF2FE1422CF0E10100A011DB
:10257800433CF0010010A0118024B0E18134B00187
:1025880001003001010580131EFF2FE10030A0E398
:10259800010000EA023110E20000604200C0B0E130
:1025A8001EFF2F014B3483E30010A0E10000A0E3DD
:1025B8000F0000EA012090E11EFF2F010030A0E388
:1025C800050000EA012090E11EFF2F01023111E20F
:1025D8000100005A000070E20010E1E201C0B0E121
:1025E80000C0A0010010A0010000A0035B3483E339
:1025F80001324302023543E21720A0E301085CE3FD
:102608002CC8A02110204222010C5CE32CC4A0217C
:102618000820422210005CE32CC2A02104204222A0
:1026280004005CE302204222AC204230AC2152E09C
:10263800823B43E0060000BA113283E010C2A0E1F9
:10264800202062E202015CE33002A3E00100C00343
:102658001EFF2FE1202082E211C2A0E1202062E2C9
:102668008C0090E13102A3E0AC0FC0011EFF2FE106
:10267800FFC0A0E3A02B1CE0A13B1C100C003211F2
:102688000C0033113E00000A032082E001C020E064
:102698008004B0E18114B0111000000A0233A0E3F5
:1026A800A00283E1A11283E1903181E002010CE2F2
:1026B800020551E38110A031A31F81318330A0317D
:1026C800010080E17F20C2E2FD0052E30F00008A92
:1026D800020153E3820BA0E00100C0031EFF2FE1BB
:1026E800000030E302C10CE28114A001A0048CE1D7
:1026F800A10480E17F2052E2FF3072C2820B80C1C8
:102708001EFF2FC1020580E30030A0E3012052E242
:10271800350000CA190072E3020100D21EFF2FD152
:10272800002062E28010B0E13112A0E1202062E2D4
:1027380010C2A0E16100B0E10000A0E28C3093E19A
:10274800AC0FC0011EFF2FE1000032E302C100E21E
:102758008000A0010205100301204202FBFFFF0ACE
:102768000C0080E1000033E302C101E28110A00106
:102778000205110301304302FBFFFF0A0C1081E13F
:10278800C0FFFFEAA13B0CE00C0032E10C00331162
:102798000500000A02C1D0E302C1D113E9FFFF1A04
:1027A800010020E0020100E21EFF2FE1000030E3FB
:1027B800020130130100A00100003113020131139E
:1027C8000D00000A0C0032E10100001A8024B0E17B
:1027D8000900001A0C0033E10200001A8134B0E14C
:1027E8000100A0110400001A010020E0020100E22B
:1027F8007F0480E3020580E31EFF2FE17F0480E36E
:10280800030580E31EFF2FE1FFC0A0E3A02B1CE01F
:10281800A13B1C100C0032110C0033113A00000AC5
:10282800032042E001C020E08114B0E18004A0E16F
:102838001C00000A0132A0E3211283E1203283E167
:1028480002010CE2010053E18330A0317D20A2E2B5
:1028580002C5A0E3010053E1013043200C008021B0
:10286800A10053E1A1304320AC008021210153E1B4
:10287800213143202C018021A10153E1A1314320C2
:10288800AC0180210332B0E12CC2B011F0FFFF1A75
:10289800FD0052E39DFFFF8A010053E1820BA0E097
:1028A8000100C0031EFF2FE102C10CE2A0048CE16D
:1028B8007F2092E2FF3072C2820B80C11EFF2FC1BF
:1028C800020580E30030A0E3012052E28FFFFFEA17
:1028D800000032E302C100E28000A00102051003FB
:1028E80001204202FBFFFF0A0C0080E1000033E3F5
:1028F80002C101E28110A001020511030130430267
:10290800FBFFFF0A0C1081E1C4FFFFEAA13B0CE0CA
:102918000C0032E10500001A8024B0E1B6FFFF1A6E
:102928000C0033E1AFFFFF1A0100A0E1B2FFFFEA9C
:102938000C0033E10300001A8134B0E197FFFF0A6D
:102948000100A0E1ACFFFFEA02C1D0E302C1D1134C
:10295800DEFFFF1A0221D0E3A2FFFF1A0231D1E302
:102968008EFFFF1AA4FFFFEA8020B0E10800002ACA
:102978007F0452E30600003A9E30A0E3222C53E085
:102988000500004A0034A0E1023183E33302A0E1EC
:102998001EFF2FE10000A0E31EFF2FE1610072E39C
:1029A8000100001A8024B0E10100001A0000E0E3F1
:1029B8001EFF2FE10000A0E31EFF2FE1002100F021
:1029C80004B80C4B5B58435004310B480B4B42186E
:1029D8009A42FFF4F6AF0A4A00F003B8002342F81F
:1029E800043B084B9A42FFF4F9AFFDF751FDFDF7A0
:1029F8001DFC7047142A0008000000202800002051
:0C2A08002800002044000020FFF7FEBF63
:102A1400AAAA0000007A030A0000000000000000D7
:102A24000102030406070809000000000102030470
:082A3400010203040607080972
:04000005080029C501
:00000001FF
